{
  "_format": "hh-sol-artifact-1",
  "contractName": "Paramify",
  "sourceName": "contracts/Paramify.sol",
  "abi": [
    {
      "inputs": [
        {
          "internalType": "address",
          "name": "_priceFeedAddress",
          "type": "address"
        }
      ],
      "stateMutability": "nonpayable",
      "type": "constructor"
    },
    {
      "inputs": [],
      "name": "AccessControlBadConfirmation",
      "type": "error"
    },
    {
      "inputs": [
        {
          "internalType": "address",
          "name": "account",
          "type": "address"
        },
        {
          "internalType": "bytes32",
          "name": "neededRole",
          "type": "bytes32"
        }
      ],
      "name": "AccessControlUnauthorizedAccount",
      "type": "error"
    },
    {
      "inputs": [
        {
          "internalType": "address",
          "name": "sender",
          "type": "address"
        },
        {
          "internalType": "uint256",
          "name": "tokenId",
          "type": "uint256"
        },
        {
          "internalType": "address",
          "name": "owner",
          "type": "address"
        }
      ],
      "name": "ERC721IncorrectOwner",
      "type": "error"
    },
    {
      "inputs": [
        {
          "internalType": "address",
          "name": "operator",
          "type": "address"
        },
        {
          "internalType": "uint256",
          "name": "tokenId",
          "type": "uint256"
        }
      ],
      "name": "ERC721InsufficientApproval",
      "type": "error"
    },
    {
      "inputs": [
        {
          "internalType": "address",
          "name": "approver",
          "type": "address"
        }
      ],
      "name": "ERC721InvalidApprover",
      "type": "error"
    },
    {
      "inputs": [
        {
          "internalType": "address",
          "name": "operator",
          "type": "address"
        }
      ],
      "name": "ERC721InvalidOperator",
      "type": "error"
    },
    {
      "inputs": [
        {
          "internalType": "address",
          "name": "owner",
          "type": "address"
        }
      ],
      "name": "ERC721InvalidOwner",
      "type": "error"
    },
    {
      "inputs": [
        {
          "internalType": "address",
          "name": "receiver",
          "type": "address"
        }
      ],
      "name": "ERC721InvalidReceiver",
      "type": "error"
    },
    {
      "inputs": [
        {
          "internalType": "address",
          "name": "sender",
          "type": "address"
        }
      ],
      "name": "ERC721InvalidSender",
      "type": "error"
    },
    {
      "inputs": [
        {
          "internalType": "uint256",
          "name": "tokenId",
          "type": "uint256"
        }
      ],
      "name": "ERC721NonexistentToken",
      "type": "error"
    },
    {
      "inputs": [],
      "name": "PolicyNFTNotTransferable",
      "type": "error"
    },
    {
      "inputs": [
        {
          "internalType": "uint256",
          "name": "value",
          "type": "uint256"
        },
        {
          "internalType": "uint256",
          "name": "length",
          "type": "uint256"
        }
      ],
      "name": "StringsInsufficientHexLength",
      "type": "error"
    },
    {
      "anonymous": false,
      "inputs": [
        {
          "indexed": true,
          "internalType": "address",
          "name": "owner",
          "type": "address"
        },
        {
          "indexed": true,
          "internalType": "address",
          "name": "approved",
          "type": "address"
        },
        {
          "indexed": true,
          "internalType": "uint256",
          "name": "tokenId",
          "type": "uint256"
        }
      ],
      "name": "Approval",
      "type": "event"
    },
    {
      "anonymous": false,
      "inputs": [
        {
          "indexed": true,
          "internalType": "address",
          "name": "owner",
          "type": "address"
        },
        {
          "indexed": true,
          "internalType": "address",
          "name": "operator",
          "type": "address"
        },
        {
          "indexed": false,
          "internalType": "bool",
          "name": "approved",
          "type": "bool"
        }
      ],
      "name": "ApprovalForAll",
      "type": "event"
    },
    {
      "anonymous": false,
      "inputs": [
        {
          "indexed": true,
          "internalType": "address",
          "name": "customer",
          "type": "address"
        },
        {
          "indexed": false,
          "internalType": "uint256",
          "name": "premium",
          "type": "uint256"
        },
        {
          "indexed": false,
          "internalType": "uint256",
          "name": "coverage",
          "type": "uint256"
        },
        {
          "indexed": false,
          "internalType": "uint256",
          "name": "policyId",
          "type": "uint256"
        }
      ],
      "name": "InsurancePurchased",
      "type": "event"
    },
    {
      "anonymous": false,
      "inputs": [
        {
          "indexed": true,
          "internalType": "address",
          "name": "oldOracle",
          "type": "address"
        },
        {
          "indexed": true,
          "internalType": "address",
          "name": "newOracle",
          "type": "address"
        }
      ],
      "name": "OracleAddressUpdated",
      "type": "event"
    },
    {
      "anonymous": false,
      "inputs": [
        {
          "indexed": true,
          "internalType": "address",
          "name": "customer",
          "type": "address"
        },
        {
          "indexed": false,
          "internalType": "uint256",
          "name": "amount",
          "type": "uint256"
        },
        {
          "indexed": false,
          "internalType": "uint256",
          "name": "policyId",
          "type": "uint256"
        }
      ],
      "name": "PayoutTriggered",
      "type": "event"
    },
    {
      "anonymous": false,
      "inputs": [
        {
          "indexed": true,
          "internalType": "uint256",
          "name": "policyId",
          "type": "uint256"
        },
        {
          "indexed": true,
          "internalType": "address",
          "name": "policyholder",
          "type": "address"
        },
        {
          "indexed": false,
          "internalType": "uint256",
          "name": "coverage",
          "type": "uint256"
        },
        {
          "indexed": false,
          "internalType": "uint256",
          "name": "premium",
          "type": "uint256"
        }
      ],
      "name": "PolicyCreated",
      "type": "event"
    },
    {
      "anonymous": false,
      "inputs": [
        {
          "indexed": true,
          "internalType": "uint256",
          "name": "policyId",
          "type": "uint256"
        },
        {
          "indexed": false,
          "internalType": "bool",
          "name": "active",
          "type": "bool"
        },
        {
          "indexed": false,
          "internalType": "bool",
          "name": "paidOut",
          "type": "bool"
        }
      ],
      "name": "PolicyStatusChanged",
      "type": "event"
    },
    {
      "anonymous": false,
      "inputs": [
        {
          "indexed": true,
          "internalType": "bytes32",
          "name": "role",
          "type": "bytes32"
        },
        {
          "indexed": true,
          "internalType": "bytes32",
          "name": "previousAdminRole",
          "type": "bytes32"
        },
        {
          "indexed": true,
          "internalType": "bytes32",
          "name": "newAdminRole",
          "type": "bytes32"
        }
      ],
      "name": "RoleAdminChanged",
      "type": "event"
    },
    {
      "anonymous": false,
      "inputs": [
        {
          "indexed": true,
          "internalType": "bytes32",
          "name": "role",
          "type": "bytes32"
        },
        {
          "indexed": true,
          "internalType": "address",
          "name": "account",
          "type": "address"
        },
        {
          "indexed": true,
          "internalType": "address",
          "name": "sender",
          "type": "address"
        }
      ],
      "name": "RoleGranted",
      "type": "event"
    },
    {
      "anonymous": false,
      "inputs": [
        {
          "indexed": true,
          "internalType": "bytes32",
          "name": "role",
          "type": "bytes32"
        },
        {
          "indexed": true,
          "internalType": "address",
          "name": "account",
          "type": "address"
        },
        {
          "indexed": true,
          "internalType": "address",
          "name": "sender",
          "type": "address"
        }
      ],
      "name": "RoleRevoked",
      "type": "event"
    },
    {
      "anonymous": false,
      "inputs": [
        {
          "indexed": false,
          "internalType": "uint256",
          "name": "oldThreshold",
          "type": "uint256"
        },
        {
          "indexed": false,
          "internalType": "uint256",
          "name": "newThreshold",
          "type": "uint256"
        }
      ],
      "name": "ThresholdChanged",
      "type": "event"
    },
    {
      "anonymous": false,
      "inputs": [
        {
          "indexed": true,
          "internalType": "address",
          "name": "from",
          "type": "address"
        },
        {
          "indexed": true,
          "internalType": "address",
          "name": "to",
          "type": "address"
        },
        {
          "indexed": true,
          "internalType": "uint256",
          "name": "tokenId",
          "type": "uint256"
        }
      ],
      "name": "Transfer",
      "type": "event"
    },
    {
      "inputs": [],
      "name": "DEFAULT_ADMIN_ROLE",
      "outputs": [
        {
          "internalType": "bytes32",
          "name": "",
          "type": "bytes32"
        }
      ],
      "stateMutability": "view",
      "type": "function"
    },
    {
      "inputs": [],
      "name": "INSURANCE_ADMIN_ROLE",
      "outputs": [
        {
          "internalType": "bytes32",
          "name": "",
          "type": "bytes32"
        }
      ],
      "stateMutability": "view",
      "type": "function"
    },
    {
      "inputs": [],
      "name": "ORACLE_UPDATER_ROLE",
      "outputs": [
        {
          "internalType": "bytes32",
          "name": "",
          "type": "bytes32"
        }
      ],
      "stateMutability": "view",
      "type": "function"
    },
    {
      "inputs": [
        {
          "internalType": "address",
          "name": "",
          "type": "address"
        }
      ],
      "name": "activePolicyId",
      "outputs": [
        {
          "internalType": "uint256",
          "name": "",
          "type": "uint256"
        }
      ],
      "stateMutability": "view",
      "type": "function"
    },
    {
      "inputs": [
        {
          "internalType": "address",
          "name": "to",
          "type": "address"
        },
        {
          "internalType": "uint256",
          "name": "tokenId",
          "type": "uint256"
        }
      ],
      "name": "approve",
      "outputs": [],
      "stateMutability": "nonpayable",
      "type": "function"
    },
    {
      "inputs": [
        {
          "internalType": "address",
          "name": "owner",
          "type": "address"
        }
      ],
      "name": "balanceOf",
      "outputs": [
        {
          "internalType": "uint256",
          "name": "",
          "type": "uint256"
        }
      ],
      "stateMutability": "view",
      "type": "function"
    },
    {
      "inputs": [
        {
          "internalType": "uint256",
          "name": "_coverage",
          "type": "uint256"
        }
      ],
      "name": "buyInsurance",
      "outputs": [],
      "stateMutability": "payable",
      "type": "function"
    },
    {
      "inputs": [],
      "name": "floodThreshold",
      "outputs": [
        {
          "internalType": "uint256",
          "name": "",
          "type": "uint256"
        }
      ],
      "stateMutability": "view",
      "type": "function"
    },
    {
      "inputs": [],
      "name": "getAllPolicies",
      "outputs": [
        {
          "components": [
            {
              "internalType": "uint256",
              "name": "policyId",
              "type": "uint256"
            },
            {
              "internalType": "address",
              "name": "policyholder",
              "type": "address"
            },
            {
              "internalType": "uint256",
              "name": "premium",
              "type": "uint256"
            },
            {
              "internalType": "uint256",
              "name": "coverage",
              "type": "uint256"
            },
            {
              "internalType": "uint256",
              "name": "purchaseTime",
              "type": "uint256"
            },
            {
              "internalType": "bool",
              "name": "active",
              "type": "bool"
            },
            {
              "internalType": "bool",
              "name": "paidOut",
              "type": "bool"
            }
          ],
          "internalType": "struct Paramify.Policy[]",
          "name": "",
          "type": "tuple[]"
        }
      ],
      "stateMutability": "view",
      "type": "function"
    },
    {
      "inputs": [
        {
          "internalType": "uint256",
          "name": "tokenId",
          "type": "uint256"
        }
      ],
      "name": "getApproved",
      "outputs": [
        {
          "internalType": "address",
          "name": "",
          "type": "address"
        }
      ],
      "stateMutability": "view",
      "type": "function"
    },
    {
      "inputs": [],
      "name": "getContractBalance",
      "outputs": [
        {
          "internalType": "uint256",
          "name": "",
          "type": "uint256"
        }
      ],
      "stateMutability": "view",
      "type": "function"
    },
    {
      "inputs": [],
      "name": "getCurrentThreshold",
      "outputs": [
        {
          "internalType": "uint256",
          "name": "",
          "type": "uint256"
        }
      ],
      "stateMutability": "view",
      "type": "function"
    },
    {
      "inputs": [],
      "name": "getLatestPrice",
      "outputs": [
        {
          "internalType": "int256",
          "name": "",
          "type": "int256"
        }
      ],
      "stateMutability": "view",
      "type": "function"
    },
    {
      "inputs": [],
      "name": "getPolicyStats",
      "outputs": [
        {
          "internalType": "uint256",
          "name": "total",
          "type": "uint256"
        },
        {
          "internalType": "uint256",
          "name": "active",
          "type": "uint256"
        },
        {
          "internalType": "uint256",
          "name": "paidOut",
          "type": "uint256"
        }
      ],
      "stateMutability": "view",
      "type": "function"
    },
    {
      "inputs": [
        {
          "internalType": "bytes32",
          "name": "role",
          "type": "bytes32"
        }
      ],
      "name": "getRoleAdmin",
      "outputs": [
        {
          "internalType": "bytes32",
          "name": "",
          "type": "bytes32"
        }
      ],
      "stateMutability": "view",
      "type": "function"
    },
    {
      "inputs": [],
      "name": "getThresholdInFeet",
      "outputs": [
        {
          "internalType": "uint256",
          "name": "",
          "type": "uint256"
        }
      ],
      "stateMutability": "view",
      "type": "function"
    },
    {
      "inputs": [
        {
          "internalType": "bytes32",
          "name": "role",
          "type": "bytes32"
        },
        {
          "internalType": "address",
          "name": "account",
          "type": "address"
        }
      ],
      "name": "grantRole",
      "outputs": [],
      "stateMutability": "nonpayable",
      "type": "function"
    },
    {
      "inputs": [
        {
          "internalType": "bytes32",
          "name": "role",
          "type": "bytes32"
        },
        {
          "internalType": "address",
          "name": "account",
          "type": "address"
        }
      ],
      "name": "hasRole",
      "outputs": [
        {
          "internalType": "bool",
          "name": "",
          "type": "bool"
        }
      ],
      "stateMutability": "view",
      "type": "function"
    },
    {
      "inputs": [],
      "name": "insuranceAmount",
      "outputs": [
        {
          "internalType": "uint256",
          "name": "",
          "type": "uint256"
        }
      ],
      "stateMutability": "view",
      "type": "function"
    },
    {
      "inputs": [
        {
          "internalType": "address",
          "name": "owner",
          "type": "address"
        },
        {
          "internalType": "address",
          "name": "operator",
          "type": "address"
        }
      ],
      "name": "isApprovedForAll",
      "outputs": [
        {
          "internalType": "bool",
          "name": "",
          "type": "bool"
        }
      ],
      "stateMutability": "view",
      "type": "function"
    },
    {
      "inputs": [],
      "name": "isInitialized",
      "outputs": [
        {
          "internalType": "bool",
          "name": "",
          "type": "bool"
        }
      ],
      "stateMutability": "view",
      "type": "function"
    },
    {
      "inputs": [
        {
          "internalType": "address",
          "name": "_customer",
          "type": "address"
        }
      ],
      "name": "isPayoutEligible",
      "outputs": [
        {
          "internalType": "bool",
          "name": "",
          "type": "bool"
        }
      ],
      "stateMutability": "view",
      "type": "function"
    },
    {
      "inputs": [],
      "name": "name",
      "outputs": [
        {
          "internalType": "string",
          "name": "",
          "type": "string"
        }
      ],
      "stateMutability": "view",
      "type": "function"
    },
    {
      "inputs": [],
      "name": "owner",
      "outputs": [
        {
          "internalType": "address",
          "name": "",
          "type": "address"
        }
      ],
      "stateMutability": "view",
      "type": "function"
    },
    {
      "inputs": [
        {
          "internalType": "uint256",
          "name": "tokenId",
          "type": "uint256"
        }
      ],
      "name": "ownerOf",
      "outputs": [
        {
          "internalType": "address",
          "name": "",
          "type": "address"
        }
      ],
      "stateMutability": "view",
      "type": "function"
    },
    {
      "inputs": [
        {
          "internalType": "uint256",
          "name": "",
          "type": "uint256"
        }
      ],
      "name": "policies",
      "outputs": [
        {
          "internalType": "uint256",
          "name": "policyId",
          "type": "uint256"
        },
        {
          "internalType": "address",
          "name": "policyholder",
          "type": "address"
        },
        {
          "internalType": "uint256",
          "name": "premium",
          "type": "uint256"
        },
        {
          "internalType": "uint256",
          "name": "coverage",
          "type": "uint256"
        },
        {
          "internalType": "uint256",
          "name": "purchaseTime",
          "type": "uint256"
        },
        {
          "internalType": "bool",
          "name": "active",
          "type": "bool"
        },
        {
          "internalType": "bool",
          "name": "paidOut",
          "type": "bool"
        }
      ],
      "stateMutability": "view",
      "type": "function"
    },
    {
      "inputs": [],
      "name": "priceFeed",
      "outputs": [
        {
          "internalType": "contract AggregatorV3Interface",
          "name": "",
          "type": "address"
        }
      ],
      "stateMutability": "view",
      "type": "function"
    },
    {
      "inputs": [
        {
          "internalType": "bytes32",
          "name": "role",
          "type": "bytes32"
        },
        {
          "internalType": "address",
          "name": "callerConfirmation",
          "type": "address"
        }
      ],
      "name": "renounceRole",
      "outputs": [],
      "stateMutability": "nonpayable",
      "type": "function"
    },
    {
      "inputs": [
        {
          "internalType": "bytes32",
          "name": "role",
          "type": "bytes32"
        },
        {
          "internalType": "address",
          "name": "account",
          "type": "address"
        }
      ],
      "name": "revokeRole",
      "outputs": [],
      "stateMutability": "nonpayable",
      "type": "function"
    },
    {
      "inputs": [
        {
          "internalType": "address",
          "name": "from",
          "type": "address"
        },
        {
          "internalType": "address",
          "name": "to",
          "type": "address"
        },
        {
          "internalType": "uint256",
          "name": "tokenId",
          "type": "uint256"
        }
      ],
      "name": "safeTransferFrom",
      "outputs": [],
      "stateMutability": "nonpayable",
      "type": "function"
    },
    {
      "inputs": [
        {
          "internalType": "address",
          "name": "from",
          "type": "address"
        },
        {
          "internalType": "address",
          "name": "to",
          "type": "address"
        },
        {
          "internalType": "uint256",
          "name": "tokenId",
          "type": "uint256"
        },
        {
          "internalType": "bytes",
          "name": "data",
          "type": "bytes"
        }
      ],
      "name": "safeTransferFrom",
      "outputs": [],
      "stateMutability": "nonpayable",
      "type": "function"
    },
    {
      "inputs": [
        {
          "internalType": "address",
          "name": "operator",
          "type": "address"
        },
        {
          "internalType": "bool",
          "name": "approved",
          "type": "bool"
        }
      ],
      "name": "setApprovalForAll",
      "outputs": [],
      "stateMutability": "nonpayable",
      "type": "function"
    },
    {
      "inputs": [
        {
          "internalType": "uint256",
          "name": "_amount",
          "type": "uint256"
        }
      ],
      "name": "setInsuranceAmount",
      "outputs": [],
      "stateMutability": "nonpayable",
      "type": "function"
    },
    {
      "inputs": [
        {
          "internalType": "address",
          "name": "_oracleAddress",
          "type": "address"
        }
      ],
      "name": "setOracleAddress",
      "outputs": [],
      "stateMutability": "nonpayable",
      "type": "function"
    },
    {
      "inputs": [
        {
          "internalType": "uint256",
          "name": "_newThreshold",
          "type": "uint256"
        }
      ],
      "name": "setThreshold",
      "outputs": [],
      "stateMutability": "nonpayable",
      "type": "function"
    },
    {
      "inputs": [
        {
          "internalType": "bytes4",
          "name": "interfaceId",
          "type": "bytes4"
        }
      ],
      "name": "supportsInterface",
      "outputs": [
        {
          "internalType": "bool",
          "name": "",
          "type": "bool"
        }
      ],
      "stateMutability": "view",
      "type": "function"
    },
    {
      "inputs": [],
      "name": "symbol",
      "outputs": [
        {
          "internalType": "string",
          "name": "",
          "type": "string"
        }
      ],
      "stateMutability": "view",
      "type": "function"
    },
    {
      "inputs": [
        {
          "internalType": "uint256",
          "name": "tokenId",
          "type": "uint256"
        }
      ],
      "name": "tokenURI",
      "outputs": [
        {
          "internalType": "string",
          "name": "",
          "type": "string"
        }
      ],
      "stateMutability": "view",
      "type": "function"
    },
    {
      "inputs": [
        {
          "internalType": "address",
          "name": "from",
          "type": "address"
        },
        {
          "internalType": "address",
          "name": "to",
          "type": "address"
        },
        {
          "internalType": "uint256",
          "name": "tokenId",
          "type": "uint256"
        }
      ],
      "name": "transferFrom",
      "outputs": [],
      "stateMutability": "nonpayable",
      "type": "function"
    },
    {
      "inputs": [
        {
          "internalType": "address",
          "name": "newOwner",
          "type": "address"
        }
      ],
      "name": "transferOwnership",
      "outputs": [],
      "stateMutability": "nonpayable",
      "type": "function"
    },
    {
      "inputs": [],
      "name": "triggerPayout",
      "outputs": [],
      "stateMutability": "nonpayable",
      "type": "function"
    },
    {
      "inputs": [],
      "name": "withdraw",
      "outputs": [],
      "stateMutability": "nonpayable",
      "type": "function"
    },
    {
      "stateMutability": "payable",
      "type": "receive"
    }
  ],
  "bytecode": "0x60806040526501176592e000600b5534801561001a57600080fd5b506040516139fe3803806139fe83398101604081905261003991610202565b6040518060400160405280601681526020017f506172616d69667920496e737572616e6365204e46540000000000000000000081525060405180604001604052806005815260200164141253919560da1b815250816001908161009c91906102d1565b5060026100a982826102d1565b5050600c80546001600160a01b031916339081179091556100cd9150600090610156565b506100f87f9792fdc19ab98adfa72ab2fa98d342618c661e01c406979c105b31eda87f5e6f33610156565b506101237f89b7833be53af5649430c7ac49df0baab05039ffab1e3f75ae8a0942c324699a33610156565b50600880546001600160a01b0319166001600160a01b0392909216919091179055600a805460ff1916600117905561038f565b6000828152602081815260408083206001600160a01b038516845290915281205460ff166101f8576000838152602081815260408083206001600160a01b03861684529091529020805460ff191660011790556101b03390565b6001600160a01b0316826001600160a01b0316847f2f8788117e7eff1d82e926ec794901d17c78024a50270940304540a733656f0d60405160405180910390a45060016101fc565b5060005b92915050565b60006020828403121561021457600080fd5b81516001600160a01b038116811461022b57600080fd5b9392505050565b634e487b7160e01b600052604160045260246000fd5b600181811c9082168061025c57607f821691505b60208210810361027c57634e487b7160e01b600052602260045260246000fd5b50919050565b601f8211156102cc57806000526020600020601f840160051c810160208510156102a95750805b601f840160051c820191505b818110156102c957600081556001016102b5565b50505b505050565b81516001600160401b038111156102ea576102ea610232565b6102fe816102f88454610248565b84610282565b6020601f821160018114610332576000831561031a5750848201515b600019600385901b1c1916600184901b1784556102c9565b600084815260208120601f198516915b828110156103625787850151825560209485019460019092019101610342565b50848210156103805786840151600019600387901b60f8161c191681555b50505050600190811b01905550565b6136608061039e6000396000f3fe6080604052600436106102555760003560e01c8063741bef1a11610139578063a22cb465116100b6578063d3e894831161007a578063d3e8948314610700578063d547741f146107a7578063e2840975146107c7578063e985e9c5146107dd578063ee1ed6b7146107fd578063f2fde38b1461081d57600080fd5b8063a22cb46514610677578063a74f996514610697578063a86a658c146106ad578063b88d4fde146106c0578063c87b56dd146106e057600080fd5b806391d14854116100fd57806391d14854146105dd57806395d89b41146105fd578063960bfe041461061257806396ca686d14610632578063a217fddf1461066257600080fd5b8063741bef1a14610527578063741fe126146105475780637b0d43ae1461057b5780638da5cb5b146105a85780638e15f473146105c857600080fd5b80632caecd3d116101d257806342842e0e1161019657806342842e0e14610472578063457e5521146104925780634c69c00f146104b45780636352211e146104d45780636f9fb98a146104f457806370a082311461050757600080fd5b80632caecd3d146103ee5780632f2ff15d1461040357806336568abe14610423578063392e53cd146104435780633ccfd60b1461045d57600080fd5b806315a0def11161021957806315a0def1146103275780631732d330146103475780631b71bf6e1461038957806323b872dd1461039e578063248a9ca3146103be57600080fd5b806301ffc9a71461026157806305a95f041461029657806306fdde03146102ad578063081812fc146102cf578063095ea7b31461030757600080fd5b3661025c57005b600080fd5b34801561026d57600080fd5b5061028161027c366004612918565b61083d565b60405190151581526020015b60405180910390f35b3480156102a257600080fd5b506102ab61084e565b005b3480156102b957600080fd5b506102c2610ac8565b60405161028d9190612985565b3480156102db57600080fd5b506102ef6102ea366004612998565b610b5a565b6040516001600160a01b03909116815260200161028d565b34801561031357600080fd5b506102ab6103223660046129cd565b610b83565b34801561033357600080fd5b506102816103423660046129f7565b610b92565b34801561035357600080fd5b5061037b7f9792fdc19ab98adfa72ab2fa98d342618c661e01c406979c105b31eda87f5e6f81565b60405190815260200161028d565b34801561039557600080fd5b50600b5461037b565b3480156103aa57600080fd5b506102ab6103b9366004612a12565b610c62565b3480156103ca57600080fd5b5061037b6103d9366004612998565b60009081526020819052604090206001015490565b3480156103fa57600080fd5b5061037b610ced565b34801561040f57600080fd5b506102ab61041e366004612a4f565b610d07565b34801561042f57600080fd5b506102ab61043e366004612a4f565b610d2c565b34801561044f57600080fd5b50600a546102819060ff1681565b34801561046957600080fd5b506102ab610d64565b34801561047e57600080fd5b506102ab61048d366004612a12565b610e40565b34801561049e57600080fd5b506104a7610e5b565b60405161028d9190612a7b565b3480156104c057600080fd5b506102ab6104cf3660046129f7565b610fba565b3480156104e057600080fd5b506102ef6104ef366004612998565b611067565b34801561050057600080fd5b504761037b565b34801561051357600080fd5b5061037b6105223660046129f7565b611072565b34801561053357600080fd5b506008546102ef906001600160a01b031681565b34801561055357600080fd5b5061037b7f89b7833be53af5649430c7ac49df0baab05039ffab1e3f75ae8a0942c324699a81565b34801561058757600080fd5b5061037b6105963660046129f7565b600e6020526000908152604090205481565b3480156105b457600080fd5b50600c546102ef906001600160a01b031681565b3480156105d457600080fd5b5061037b6110ba565b3480156105e957600080fd5b506102816105f8366004612a4f565b61113f565b34801561060957600080fd5b506102c2611168565b34801561061e57600080fd5b506102ab61062d366004612998565b611177565b34801561063e57600080fd5b506106476112ab565b6040805193845260208401929092529082015260600161028d565b34801561066e57600080fd5b5061037b600081565b34801561068357600080fd5b506102ab610692366004612b0e565b611328565b3480156106a357600080fd5b5061037b60095481565b6102ab6106bb366004612998565b611333565b3480156106cc57600080fd5b506102ab6106db366004612b60565b6115ff565b3480156106ec57600080fd5b506102c26106fb366004612998565b611617565b34801561070c57600080fd5b5061076661071b366004612998565b600d6020526000908152604090208054600182015460028301546003840154600485015460059095015493946001600160a01b03909316939192909160ff8082169161010090041687565b604080519788526001600160a01b0390961660208801529486019390935260608501919091526080840152151560a0830152151560c082015260e00161028d565b3480156107b357600080fd5b506102ab6107c2366004612a4f565b611724565b3480156107d357600080fd5b5061037b600b5481565b3480156107e957600080fd5b506102816107f8366004612c44565b611749565b34801561080957600080fd5b506102ab610818366004612998565b611777565b34801561082957600080fd5b506102ab6108383660046129f7565b6117a7565b600061084882611867565b92915050565b336000908152600e6020526040812054908190036108a55760405162461bcd60e51b815260206004820152600f60248201526e139bc81c1bdb1a58de48199bdd5b99608a1b60448201526064015b60405180910390fd5b6000818152600d60205260409020600581015460ff166108fa5760405162461bcd60e51b815260206004820152601060248201526f4e6f2061637469766520706f6c69637960801b604482015260640161089c565b6005810154610100900460ff161561094c5760405162461bcd60e51b815260206004820152601560248201527414185e5bdd5d08185b1c9958591e481a5cdcdd5959605a1b604482015260640161089c565b60006109566110ba565b9050600b548110156109aa5760405162461bcd60e51b815260206004820152601b60248201527f466c6f6f64206c6576656c2062656c6f77207468726573686f6c640000000000604482015260640161089c565b60058201805461ffff191661010017905560408051600081526001602082015284917f5d919b102099eb4d754cf533f703e6c81882f02551aea67f2fdd7c0c43336a21910160405180910390a2600382015460405160009133918381818185875af1925050503d8060008114610a3c576040519150601f19603f3d011682016040523d82523d6000602084013e610a41565b606091505b5050905080610a825760405162461bcd60e51b815260206004820152600d60248201526c14185e5bdd5d0819985a5b1959609a1b604482015260640161089c565b6003830154604080519182526020820186905233917f5306cd5c1fd578475b0797de95f693e723b7bbf516236b27419b74bf999ef028910160405180910390a250505050565b606060018054610ad790612c6e565b80601f0160208091040260200160405190810160405280929190818152602001828054610b0390612c6e565b8015610b505780601f10610b2557610100808354040283529160200191610b50565b820191906000526020600020905b815481529060010190602001808311610b3357829003601f168201915b5050505050905090565b6000610b65826118a7565b506000828152600560205260409020546001600160a01b0316610848565b610b8e8282336118e0565b5050565b6001600160a01b0381166000908152600e6020526040812054808203610bbb5750600092915050565b6000818152600d6020908152604091829020825160e0810184528154815260018201546001600160a01b031692810192909252600281015492820192909252600382015460608201526004820154608082015260059091015460ff80821615801560a085015261010090920416151560c083015280610c3b57508060c001515b15610c4a575060009392505050565b6000610c546110ba565b600b54111595945050505050565b6001600160a01b038216610c8c57604051633250574960e11b81526000600482015260240161089c565b6000610c998383336118ed565b9050836001600160a01b0316816001600160a01b031614610ce7576040516364283d7b60e01b81526001600160a01b038086166004830152602482018490528216604482015260640161089c565b50505050565b600064174876e800600b54610d029190612cbe565b905090565b600082815260208190526040902060010154610d228161193a565b610ce78383611947565b6001600160a01b0381163314610d555760405163334bd91960e11b815260040160405180910390fd5b610d5f82826119d9565b505050565b6000610d6f8161193a565b4780610db45760405162461bcd60e51b81526020600482015260146024820152734e6f2066756e647320746f20776974686472617760601b604482015260640161089c565b604051600090339083908381818185875af1925050503d8060008114610df6576040519150601f19603f3d011682016040523d82523d6000602084013e610dfb565b606091505b5050905080610d5f5760405162461bcd60e51b815260206004820152601160248201527015da5d1a191c985dd85b0819985a5b1959607a1b604482015260640161089c565b610d5f838383604051806020016040528060008152506115ff565b60075460609060008167ffffffffffffffff811115610e7c57610e7c612b4a565b604051908082528060200260200182016040528015610efa57816020015b610ee76040518060e001604052806000815260200160006001600160a01b031681526020016000815260200160008152602001600081526020016000151581526020016000151581525090565b815260200190600190039081610e9a5790505b50905060015b828111610fb3576000818152600d6020908152604091829020825160e081018452815481526001808301546001600160a01b03169382019390935260028201549381019390935260038101546060840152600481015460808401526005015460ff808216151560a085015261010090910416151560c08301528390610f859084612ce0565b81518110610f9557610f95612cf3565b60200260200101819052508080610fab90612d09565b915050610f00565b5092915050565b6000610fc58161193a565b6001600160a01b0382166110145760405162461bcd60e51b8152602060048201526016602482015275496e76616c6964206f7261636c65206164647265737360501b604482015260640161089c565b600880546001600160a01b038481166001600160a01b0319831681179093556040519116919082907fd3afd1676752459d3aa8b6f73633fac8efd724610da9c4cd8d8e4fa1631841fb90600090a3505050565b6000610848826118a7565b60006001600160a01b03821661109e576040516322718ad960e21b81526000600482015260240161089c565b506001600160a01b031660009081526004602052604090205490565b600080600860009054906101000a90046001600160a01b03166001600160a01b031663feaf968c6040518163ffffffff1660e01b815260040160a060405180830381865afa158015611110573d6000803e3d6000fd5b505050506040513d601f19601f820116820180604052508101906111349190612d3c565b509195945050505050565b6000918252602082815260408084206001600160a01b0393909316845291905290205460ff1690565b606060028054610ad790612c6e565b600c546001600160a01b031633146111cb5760405162461bcd60e51b81526020600482015260176024820152762ab730baba3437b934bd32b21d102737ba1037bbb732b960491b604482015260640161089c565b6000811161121b5760405162461bcd60e51b815260206004820152601a60248201527f5468726573686f6c64206d75737420626520706f736974697665000000000000604482015260640161089c565b6509184e72a0008111156112665760405162461bcd60e51b81526020600482015260126024820152710a8d0e4cae6d0ded8c840e8dede40d0d2ced60731b604482015260640161089c565b600b80549082905560408051828152602081018490527f3164947cf0f49f08dd0cd80e671535b1e11590d347c55dcaa97ba3c24a96b33a910160405180910390a15050565b60075460008060015b838111611322576000818152600d602052604090206005015460ff16156112e357826112df81612d09565b9350505b6000818152600d6020526040902060050154610100900460ff1615611310578161130c81612d09565b9250505b8061131a81612d09565b9150506112b4565b50909192565b610b8e338383611a44565b600034116113835760405162461bcd60e51b815260206004820152601e60248201527f5072656d69756d206d7573742062652067726561746572207468616e20300000604482015260640161089c565b600081116113d35760405162461bcd60e51b815260206004820152601f60248201527f436f766572616765206d7573742062652067726561746572207468616e203000604482015260640161089c565b336000908152600e60205260409020548015611443576000818152600d602052604090206005015460ff16156114435760405162461bcd60e51b8152602060048201526015602482015274506f6c69637920616c72656164792061637469766560581b604482015260640161089c565b6000611450600a84612cbe565b9050803410156114995760405162461bcd60e51b8152602060048201526014602482015273496e73756666696369656e74207072656d69756d60601b604482015260640161089c565b600780549060006114a983612d09565b90915550506007546040805160e08101825282815233602080830182815234848601908152606085018a81524260808701908152600160a08801818152600060c08a018181528c8252600d89528b82209a518b559651928a0180546001600160a01b0319166001600160a01b03909416939093179092559351600289015591516003880155516004870155905160059095018054925161ffff1990931695151561ff001916959095176101009215159290920291909117909355818352600e905291902082905561157a9082611ae3565b604080513481526020810186905290810182905233907f7000580a6e3747e318650b055e5e30c38af1f23e69d9baf2c3bbc5fa993980629060600160405180910390a260408051858152346020820152339183917ff407f724dd5d2b7754fcbc405960f07c8da0a85e7f71948913fb2997e77bfc86910160405180910390a350505050565b61160a848484610c62565b610ce73385858585611afd565b606060008211801561162b57506007548211155b61166e5760405162461bcd60e51b8152602060048201526014602482015273151bdad95b88191bd95cc81b9bdd08195e1a5cdd60621b604482015260640161089c565b6000828152600d60209081526040808320815160e0810183528154815260018201546001600160a01b03169381019390935260028101549183019190915260038101546060830152600481015460808301526005015460ff808216151560a084015261010090910416151560c0820152906116e98483611c28565b905060006116f8858484611d6c565b90508060405160200161170b9190612daa565b6040516020818303038152906040529350505050919050565b60008281526020819052604090206001015461173f8161193a565b610ce783836119d9565b6001600160a01b03918216600090815260066020908152604080832093909416825291909152205460ff1690565b7f89b7833be53af5649430c7ac49df0baab05039ffab1e3f75ae8a0942c324699a6117a18161193a565b50600955565b600c546001600160a01b031633146117fb5760405162461bcd60e51b81526020600482015260176024820152762ab730baba3437b934bd32b21d102737ba1037bbb732b960491b604482015260640161089c565b6001600160a01b0381166118455760405162461bcd60e51b815260206004820152601160248201527024b73b30b634b2103732bb9037bbb732b960791b604482015260640161089c565b600c80546001600160a01b0319166001600160a01b0392909216919091179055565b60006001600160e01b031982166380ac58cd60e01b148061189857506001600160e01b03198216635b5e139f60e01b145b80610848575061084882611e36565b6000818152600360205260408120546001600160a01b03168061084857604051637e27328960e01b81526004810184905260240161089c565b610d5f8383836001611e6b565b6000828152600360205260408120546001600160a01b03168015611924576040516309ef42fd60e31b815260040160405180910390fd5b61192f858585611f71565b9150505b9392505050565b611944813361206a565b50565b6000611953838361113f565b6119d1576000838152602081815260408083206001600160a01b03861684529091529020805460ff191660011790556119893390565b6001600160a01b0316826001600160a01b0316847f2f8788117e7eff1d82e926ec794901d17c78024a50270940304540a733656f0d60405160405180910390a4506001610848565b506000610848565b60006119e5838361113f565b156119d1576000838152602081815260408083206001600160a01b0386168085529252808320805460ff1916905551339286917ff6391f5c32d9c69d2a47ea670b442974b53935d1edc7fd64eb21e047a839171b9190a4506001610848565b6001600160a01b038216611a7657604051630b61174360e31b81526001600160a01b038316600482015260240161089c565b6001600160a01b03838116600081815260066020908152604080832094871680845294825291829020805460ff191686151590811790915591519182527f17307eab39ab6107e8899845ad3d59bd9653f200f220920489ca2b5937696c31910160405180910390a3505050565b610b8e8282604051806020016040528060008152506120a3565b6001600160a01b0383163b15611c2157604051630a85bd0160e11b81526001600160a01b0384169063150b7a0290611b3f908890889087908790600401612def565b6020604051808303816000875af1925050508015611b7a575060408051601f3d908101601f19168201909252611b7791810190612e2c565b60015b611be3573d808015611ba8576040519150601f19603f3d011682016040523d82523d6000602084013e611bad565b606091505b508051600003611bdb57604051633250574960e11b81526001600160a01b038516600482015260240161089c565b805181602001fd5b6001600160e01b03198116630a85bd0160e11b14611c1f57604051633250574960e11b81526001600160a01b038516600482015260240161089c565b505b5050505050565b606060008260c00151611c88578260a00151611c645760405180604001604052806008815260200167496e61637469766560c01b815250611caa565b6040518060400160405280600681526020016541637469766560d01b815250611caa565b6040518060400160405280600881526020016714185a590813dd5d60c21b8152505b905060008360c00151611d0a578360a00151611ce5576040518060400160405280600781526020016608d9598d0d0d0d60ca1b815250611d2b565b604051806040016040528060078152602001662336363765656160c81b815250611d2b565b604051806040016040528060078152602001662331306239383160c81b8152505b9050611d36856120bb565b81611d41868561214e565b604051602001611d5393929190612e49565b6040516020818303038152906040529250505092915050565b606060008360c00151611dcc578360a00151611da85760405180604001604052806008815260200167496e61637469766560c01b815250611dee565b6040518060400160405280600681526020016541637469766560d01b815250611dee565b6040518060400160405280600881526020016714185a590813dd5d60c21b8152505b905061192f611dfc866120bb565b611e05856121c3565b611e108888866121e9565b604051602001611e229392919061302a565b6040516020818303038152906040526121c3565b60006001600160e01b03198216637965db0b60e01b148061084857506301ffc9a760e01b6001600160e01b0319831614610848565b8080611e7f57506001600160a01b03821615155b15611f41576000611e8f846118a7565b90506001600160a01b03831615801590611ebb5750826001600160a01b0316816001600160a01b031614155b8015611ece5750611ecc8184611749565b155b15611ef75760405163a9fbf51f60e01b81526001600160a01b038416600482015260240161089c565b8115611f3f5783856001600160a01b0316826001600160a01b03167f8c5be1e5ebec7d5bd14f71427d1e84f3dd0314c0f7b2291e5b200ac8c7c3b92560405160405180910390a45b505b5050600090815260056020526040902080546001600160a01b0319166001600160a01b0392909216919091179055565b6000828152600360205260408120546001600160a01b0390811690831615611f9e57611f9e81848661226f565b6001600160a01b03811615611fdc57611fbb600085600080611e6b565b6001600160a01b038116600090815260046020526040902080546000190190555b6001600160a01b0385161561200b576001600160a01b0385166000908152600460205260409020805460010190555b60008481526003602052604080822080546001600160a01b0319166001600160a01b0389811691821790925591518793918516917fddf252ad1be2c89b69c2b068fc378daa952ba7f163c4a11628f55a4df523b3ef91a4949350505050565b612074828261113f565b610b8e5760405163e2517d3f60e01b81526001600160a01b03821660048201526024810183905260440161089c565b6120ad83836122d3565b610d5f336000858585611afd565b606060006120c883612338565b600101905060008167ffffffffffffffff8111156120e8576120e8612b4a565b6040519080825280601f01601f191660200182016040528015612112576020820181803683370190505b5090508181016020015b600019016f181899199a1a9b1b9c1cb0b131b232b360811b600a86061a8153600a850494508461211c57509392505050565b606081612171670de0b6b3a7640000856060015161216c9190612cbe565b6120bb565b61218c670de0b6b3a7640000866040015161216c9190612cbe565b6121998660200151612410565b6040516020016121ac9493929190613159565b604051602081830303815290604052905092915050565b6060610848826040518060600160405280604081526020016135cb60409139600161259f565b60606121f4846120bb565b82612210670de0b6b3a7640000866060015161216c9190612cbe565b61222b670de0b6b3a7640000876040015161216c9190612cbe565b61224387602001516001600160a01b0316601461271f565b6040516020016122579594939291906133de565b60405160208183030381529060405290509392505050565b61227a83838361289f565b610d5f576001600160a01b0383166122a857604051637e27328960e01b81526004810182905260240161089c565b60405163177e802f60e01b81526001600160a01b03831660048201526024810182905260440161089c565b6001600160a01b0382166122fd57604051633250574960e11b81526000600482015260240161089c565b600061230b838360006118ed565b90506001600160a01b03811615610d5f576040516339e3563760e11b81526000600482015260240161089c565b60008072184f03e93ff9f4daa797ed6e38ed64bf6a1f0160401b83106123775772184f03e93ff9f4daa797ed6e38ed64bf6a1f0160401b830492506040015b6d04ee2d6d415b85acef810000000083106123a3576d04ee2d6d415b85acef8100000000830492506020015b662386f26fc1000083106123c157662386f26fc10000830492506010015b6305f5e10083106123d9576305f5e100830492506008015b61271083106123ed57612710830492506004015b606483106123ff576064830492506002015b600a83106108485760010192915050565b60606000612428836001600160a01b0316601461271f565b60408051600a808252818301909252919250829160009160208201818036833701905050905060005b60068110156124a85782818151811061246c5761246c612cf3565b602001015160f81c60f81b82828151811061248957612489612cf3565b60200101906001600160f81b031916908160001a905350600101612451565b50601760f91b816006815181106124c1576124c1612cf3565b60200101906001600160f81b031916908160001a905350601760f91b816007815181106124f0576124f0612cf3565b60200101906001600160f81b031916908160001a9053508160288151811061251a5761251a612cf3565b602001015160f81c60f81b8160088151811061253857612538612cf3565b60200101906001600160f81b031916908160001a9053508160298151811061256257612562612cf3565b602001015160f81c60f81b8160098151811061258057612580612cf3565b60200101906001600160f81b031916908160001a905350949350505050565b606083516000036125bf5750604080516020810190915260008152611933565b6000826125f0576003855160046125d69190613589565b6125e19060026135a0565b6125eb9190612cbe565b612615565b60038551600261260091906135a0565b61260a9190612cbe565b612615906004613589565b905060008167ffffffffffffffff81111561263257612632612b4a565b6040519080825280601f01601f19166020018201604052801561265c576020820181803683370190505b50905060018501602082018788518901602081018051600082525b828410156126d2576003840193508351603f8160121c168701518653600186019550603f81600c1c168701518653600186019550603f8160061c168701518653600186019550603f8116870151865350600185019450612677565b905250508515612713576003885106600181146126f6576002811461270957612711565b603d6001830353603d6002830353612711565b603d60018303535b505b50909695505050505050565b606082600061272f846002613589565b61273a9060026135a0565b67ffffffffffffffff81111561275257612752612b4a565b6040519080825280601f01601f19166020018201604052801561277c576020820181803683370190505b509050600360fc1b8160008151811061279757612797612cf3565b60200101906001600160f81b031916908160001a905350600f60fb1b816001815181106127c6576127c6612cf3565b60200101906001600160f81b031916908160001a90535060006127ea856002613589565b6127f59060016135a0565b90505b600181111561286d576f181899199a1a9b1b9c1cb0b131b232b360811b83600f166010811061282957612829612cf3565b1a60f81b82828151811061283f5761283f612cf3565b60200101906001600160f81b031916908160001a90535060049290921c91612866816135b3565b90506127f8565b5081156128975760405163e22e27eb60e01b8152600481018690526024810185905260440161089c565b949350505050565b60006001600160a01b038316158015906128975750826001600160a01b0316846001600160a01b031614806128d957506128d98484611749565b806128975750506000908152600560205260409020546001600160a01b03908116911614919050565b6001600160e01b03198116811461194457600080fd5b60006020828403121561292a57600080fd5b813561193381612902565b60005b83811015612950578181015183820152602001612938565b50506000910152565b60008151808452612971816020860160208601612935565b601f01601f19169290920160200192915050565b6020815260006119336020830184612959565b6000602082840312156129aa57600080fd5b5035919050565b80356001600160a01b03811681146129c857600080fd5b919050565b600080604083850312156129e057600080fd5b6129e9836129b1565b946020939093013593505050565b600060208284031215612a0957600080fd5b611933826129b1565b600080600060608486031215612a2757600080fd5b612a30846129b1565b9250612a3e602085016129b1565b929592945050506040919091013590565b60008060408385031215612a6257600080fd5b82359150612a72602084016129b1565b90509250929050565b602080825282518282018190526000918401906040840190835b81811015612b035783518051845260018060a01b03602082015116602085015260408101516040850152606081015160608501526080810151608085015260a0810151151560a085015260c0810151151560c08501525060e083019250602084019350600181019050612a95565b509095945050505050565b60008060408385031215612b2157600080fd5b612b2a836129b1565b915060208301358015158114612b3f57600080fd5b809150509250929050565b634e487b7160e01b600052604160045260246000fd5b60008060008060808587031215612b7657600080fd5b612b7f856129b1565b9350612b8d602086016129b1565b925060408501359150606085013567ffffffffffffffff811115612bb057600080fd5b8501601f81018713612bc157600080fd5b803567ffffffffffffffff811115612bdb57612bdb612b4a565b604051601f8201601f19908116603f0116810167ffffffffffffffff81118282101715612c0a57612c0a612b4a565b604052818152828201602001891015612c2257600080fd5b8160208401602083013760006020838301015280935050505092959194509250565b60008060408385031215612c5757600080fd5b612c60836129b1565b9150612a72602084016129b1565b600181811c90821680612c8257607f821691505b602082108103612ca257634e487b7160e01b600052602260045260246000fd5b50919050565b634e487b7160e01b600052601160045260246000fd5b600082612cdb57634e487b7160e01b600052601260045260246000fd5b500490565b8181038181111561084857610848612ca8565b634e487b7160e01b600052603260045260246000fd5b600060018201612d1b57612d1b612ca8565b5060010190565b805169ffffffffffffffffffff811681146129c857600080fd5b600080600080600060a08688031215612d5457600080fd5b612d5d86612d22565b60208701516040880151606089015192975090955093509150612d8260808701612d22565b90509295509295909350565b60008151612da0818560208601612935565b9290920192915050565b7f646174613a6170706c69636174696f6e2f6a736f6e3b6261736536342c000000815260008251612de281601d850160208701612935565b91909101601d0192915050565b6001600160a01b0385811682528416602082015260408101839052608060608201819052600090612e2290830184612959565b9695505050505050565b600060208284031215612e3e57600080fd5b815161193381612902565b7f3c73766720786d6c6e733d22687474703a2f2f7777772e77332e6f72672f323081527f30302f737667222076696577426f783d223020302033353020333530223e000060208201527f3c726563742077696474683d2233353022206865696768743d22333530222066603e8201526e34b6361e911198b098b0993291179f60891b605e8201527f3c7465787420783d223137352220793d2235302220746578742d616e63686f72606d8201527f3d226d6964646c65222066696c6c3d22236565652220666f6e742d73697a653d608d8201527f2232342220666f6e742d7765696768743d22626f6c64223e506f6c696379202360ad82015260008451612f578160cd850160208901612935565b661e17ba32bc3a1f60c91b60cd918401918201527f3c7265637420783d2232352220793d223830222077696474683d22333030222060d482019081527f6865696768743d22323430222072783d223130222066696c6c3d22233136323160f48301526b19b2911039ba3937b5b29e9160a11b610114830152906101200161301f61300d613007612fe7848a612d8e565b73111039ba3937b5b296bbb4b23a341e911911179f60611b815260140190565b87612d8e565b651e17b9bb339f60d11b815260060190565b979650505050505050565b7f7b226e616d65223a2022506172616d69667920506f6c6963792023000000000081526000845161306281601b850160208901612935565b61088b60f21b601b918401918201527f226465736372697074696f6e223a20224e465420726570726573656e74696e67601d8201527f206120506172616d69667920666c6f6f6420696e737572616e636520706f6c69603d8201526318de488b60e21b605d8201527f22696d616765223a2022646174613a696d6167652f7376672b786d6c3b626173606182015263194d8d0b60e21b60818201528451613110816085840160208901612935565b61301f61314b61300761313060858686010161088b60f21b815260020190565b6e2261747472696275746573223a205b60881b8152600f0190565b615d7d60f01b815260020190565b7f3c7465787420783d223137352220793d223132302220746578742d616e63686f815260008051602061360b83398151915260208201526d01e91189b111f29ba30ba3ab99d160951b6040820152600085516131bc81604e850160208a01612935565b661e17ba32bc3a1f60c91b604e918401918201527f3c7465787420783d223137352220793d223136302220746578742d616e63686f605582015260008051602061360b83398151915260758201526f01e91189a111f21b7bb32b930b3b29d160851b6095820152855160a59091019060009061323c818460208b01612935565b820190506133d261334f61333c6133366132e26132cb6132c5613270886a1022aa241e17ba32bc3a1f60a91b8152600b0190565b7f3c7465787420783d223137352220793d223230302220746578742d616e63686f815260008051602061360b83398151915260208201526e01e91189a111f283932b6b4bab69d1608d1b6040820152604f0190565b8c612d8e565b6a1022aa241e17ba32bc3a1f60a91b8152600b0190565b7f3c7465787420783d223137352220793d223234302220746578742d616e63686f815260008051602061360b83398151915260208201526d01e91189a111f2437b63232b91d160951b6040820152604e0190565b88612d8e565b661e17ba32bc3a1f60c91b815260070190565b7f3c7465787420783d223137352220793d223238302220746578742d616e63686f81527f723d226d6964646c65222066696c6c3d22236161612220666f6e742d73697a6560208201527f3d223132223e506172616d69667920466c6f6f6420496e737572616e63653c2f6040820152643a32bc3a1f60d91b606082015260650190565b98975050505050505050565b7f7b2274726169745f74797065223a2022506f6c696379204944222c202276616c8152653ab2911d101160d11b602082015260008651613425816026850160208b01612935565b62089f4b60ea1b6026918401918201527f7b2274726169745f74797065223a2022537461747573222c202276616c7565226029820152621d101160e91b6049820152865161347a81604c840160208b01612935565b60268183010191505062089f4b60ea1b60268201526133d261357b61357561353a6134eb6135346134fe6134eb6134e560298a017f7b2274726169745f74797065223a2022436f766572616765222c202276616c7581526432911d101160d91b602082015260250190565b8e612d8e565b6608115512089f4b60ca1b815260070190565b7f7b2274726169745f74797065223a20225072656d69756d222c202276616c7565815263111d101160e11b602082015260240190565b8a612d8e565b7f7b2274726169745f74797065223a2022506f6c696379686f6c646572222c20228152683b30b63ab2911d101160b91b602082015260290190565b86612d8e565b61227d60f01b815260020190565b808202811582820484141761084857610848612ca8565b8082018082111561084857610848612ca8565b6000816135c2576135c2612ca8565b50600019019056fe4142434445464748494a4b4c4d4e4f505152535455565758595a6162636465666768696a6b6c6d6e6f707172737475767778797a303132333435363738392b2f723d226d6964646c65222066696c6c3d22236565652220666f6e742d73697a65a2646970667358221220188c8fc9f56ea56791b3957d5426bed3b3ceeb478173d5d15b1947d5ac4623ea64736f6c634300081c0033",
  "linkReferences": {},
  "deployedLinkReferences": {}
}