{
  "_format": "hh-sol-artifact-1",
  "contractName": "MockV3Aggregator",
  "sourceName": "contracts/mocks/MockV3Aggregator.sol",
  "abi": [
    {
      "inputs": [
        {
          "internalType": "uint8",
          "name": "_decimals",
          "type": "uint8"
        },
        {
          "internalType": "int256",
          "name": "_initialAnswer",
          "type": "int256"
        }
      ],
      "stateMutability": "nonpayable",
      "type": "constructor"
    },
    {
      "inputs": [],
      "name": "decimals",
      "outputs": [
        {
          "internalType": "uint8",
          "name": "",
          "type": "uint8"
        }
      ],
      "stateMutability": "view",
      "type": "function"
    },
    {
      "inputs": [],
      "name": "description",
      "outputs": [
        {
          "internalType": "string",
          "name": "",
          "type": "string"
        }
      ],
      "stateMutability": "pure",
      "type": "function"
    },
    {
      "inputs": [
        {
          "internalType": "uint80",
          "name": "",
          "type": "uint80"
        }
      ],
      "name": "getRoundData",
      "outputs": [
        {
          "internalType": "uint80",
          "name": "roundId",
          "type": "uint80"
        },
        {
          "internalType": "int256",
          "name": "answer",
          "type": "int256"
        },
        {
          "internalType": "uint256",
          "name": "startedAt",
          "type": "uint256"
        },
        {
          "internalType": "uint256",
          "name": "updatedAt",
          "type": "uint256"
        },
        {
          "internalType": "uint80",
          "name": "answeredInRound",
          "type": "uint80"
        }
      ],
      "stateMutability": "view",
      "type": "function"
    },
    {
      "inputs": [],
      "name": "latestAnswer",
      "outputs": [
        {
          "internalType": "int256",
          "name": "",
          "type": "int256"
        }
      ],
      "stateMutability": "view",
      "type": "function"
    },
    {
      "inputs": [],
      "name": "latestRound",
      "outputs": [
        {
          "internalType": "uint80",
          "name": "",
          "type": "uint80"
        }
      ],
      "stateMutability": "view",
      "type": "function"
    },
    {
      "inputs": [],
      "name": "latestRoundData",
      "outputs": [
        {
          "internalType": "uint80",
          "name": "roundId",
          "type": "uint80"
        },
        {
          "internalType": "int256",
          "name": "answer",
          "type": "int256"
        },
        {
          "internalType": "uint256",
          "name": "startedAt",
          "type": "uint256"
        },
        {
          "internalType": "uint256",
          "name": "updatedAt",
          "type": "uint256"
        },
        {
          "internalType": "uint80",
          "name": "answeredInRound",
          "type": "uint80"
        }
      ],
      "stateMutability": "view",
      "type": "function"
    },
    {
      "inputs": [],
      "name": "latestTimestamp",
      "outputs": [
        {
          "internalType": "uint256",
          "name": "",
          "type": "uint256"
        }
      ],
      "stateMutability": "view",
      "type": "function"
    },
    {
      "inputs": [
        {
          "internalType": "int256",
          "name": "_answer",
          "type": "int256"
        }
      ],
      "name": "updateAnswer",
      "outputs": [],
      "stateMutability": "nonpayable",
      "type": "function"
    },
    {
      "inputs": [],
      "name": "version",
      "outputs": [
        {
          "internalType": "uint256",
          "name": "",
          "type": "uint256"
        }
      ],
      "stateMutability": "pure",
      "type": "function"
    }
  ],
  "bytecode": "608060405234801561001057600080fd5b506040516107cf3803806107cf83398181016040528101906100329190610103565b816000806101000a81548160ff021916908360ff16021790555080600181905550426002819055506001600360006101000a81548169ffffffffffffffffffff021916908369ffffffffffffffffffff1602179055505050610143565b600080fd5b600060ff82169050919050565b6100aa81610094565b81146100b557600080fd5b50565b6000815190506100c7816100a1565b92915050565b6000819050919050565b6100e0816100cd565b81146100eb57600080fd5b50565b6000815190506100fd816100d7565b92915050565b6000806040838503121561011a5761011961008f565b5b6000610128858286016100b8565b9250506020610139858286016100ee565b9150509250929050565b61067d806101526000396000f3fe608060405234801561001057600080fd5b50600436106100935760003560e01c80637284e416116100665780637284e416146101105780638205bf6a1461012e5780639a6fc8f51461014c578063a87a20ce14610180578063feaf968c1461019c57610093565b8063313ce5671461009857806350d25bcd146100b657806354fd4d50146100d4578063668a0f02146100f2575b600080fd5b6100a06101be565b6040516100ad9190610367565b60405180910390f35b6100be6101cf565b6040516100cb919061039b565b60405180910390f35b6100dc6101d5565b6040516100e991906103cf565b60405180910390f35b6100fa6101de565b604051610107919061040f565b60405180910390f35b6101186101fa565b60405161012591906104ba565b60405180910390f35b610136610237565b60405161014391906103cf565b60405180910390f35b6101666004803603810190610161919061050d565b61023d565b60405161017795949392919061053a565b60405180910390f35b61019a600480360381019061019591906105b9565b610293565b005b6101a46102f7565b6040516101b595949392919061053a565b60405180910390f35b60008054906101000a900460ff1681565b60015481565b60006003905090565b600360009054906101000a900469ffffffffffffffffffff1681565b60606040518060400160405280601581526020017f4d6f636b20466c6f6f64204c6576656c20466565640000000000000000000000815250905090565b60025481565b6000806000806000600360009054906101000a900469ffffffffffffffffffff16600154600254600254600360009054906101000a900469ffffffffffffffffffff169450945094509450945091939590929450565b80600181905550426002819055506003600081819054906101000a900469ffffffffffffffffffff16809291906102c990610615565b91906101000a81548169ffffffffffffffffffff021916908369ffffffffffffffffffff1602179055505050565b6000806000806000600360009054906101000a900469ffffffffffffffffffff16600154600254600254600360009054906101000a900469ffffffffffffffffffff16945094509450945094509091929394565b600060ff82169050919050565b6103618161034b565b82525050565b600060208201905061037c6000830184610358565b92915050565b6000819050919050565b61039581610382565b82525050565b60006020820190506103b0600083018461038c565b92915050565b6000819050919050565b6103c9816103b6565b82525050565b60006020820190506103e460008301846103c0565b92915050565b600069ffffffffffffffffffff82169050919050565b610409816103ea565b82525050565b60006020820190506104246000830184610400565b92915050565b600081519050919050565b600082825260208201905092915050565b60005b83811015610464578082015181840152602081019050610449565b60008484015250505050565b6000601f19601f8301169050919050565b600061048c8261042a565b6104968185610435565b93506104a6818560208601610446565b6104af81610470565b840191505092915050565b600060208201905081810360008301526104d48184610481565b905092915050565b600080fd5b6104ea816103ea565b81146104f557600080fd5b50565b600081359050610507816104e1565b92915050565b600060208284031215610523576105226104dc565b5b6000610531848285016104f8565b91505092915050565b600060a08201905061054f6000830188610400565b61055c602083018761038c565b61056960408301866103c0565b61057660608301856103c0565b6105836080830184610400565b9695505050505050565b61059681610382565b81146105a157600080fd5b50565b6000813590506105b38161058d565b92915050565b6000602082840312156105cf576105ce6104dc565b5b60006105dd848285016105a4565b91505092915050565b7f4e487b7100000000000000000000000000000000000000000000000000000000600052601160045260246000fd5b6000610620826103ea565b915069ffffffffffffffffffff820361063c5761063b6105e6565b5b60018201905091905056fea26469706673582212205af9ad4c8b9253cf7d9d01856200191a6859d2b68846f40cd5047e9021a09c2a64736f6c634300081a0033",
  "linkReferences": {},
  "deployedLinkReferences": {}
}