{
  "_format": "hh-sol-artifact-1",
  "contractName": "Paramify",
  "sourceName": "contracts/Paramify.sol",
  "abi": [
    {
      "inputs": [
        {
          "internalType": "address",
          "name": "_priceFeedAddress",
          "type": "address"
        }
      ],
      "stateMutability": "nonpayable",
      "type": "constructor"
    },
    {
      "inputs": [],
      "name": "AccessControlBadConfirmation",
      "type": "error"
    },
    {
      "inputs": [
        {
          "internalType": "address",
          "name": "account",
          "type": "address"
        },
        {
          "internalType": "bytes32",
          "name": "neededRole",
          "type": "bytes32"
        }
      ],
      "name": "AccessControlUnauthorizedAccount",
      "type": "error"
    },
    {
      "anonymous": false,
      "inputs": [
        {
          "indexed": true,
          "internalType": "address",
          "name": "customer",
          "type": "address"
        },
        {
          "indexed": false,
          "internalType": "uint256",
          "name": "premium",
          "type": "uint256"
        },
        {
          "indexed": false,
          "internalType": "uint256",
          "name": "coverage",
          "type": "uint256"
        }
      ],
      "name": "InsurancePurchased",
      "type": "event"
    },
    {
      "anonymous": false,
      "inputs": [
        {
          "indexed": true,
          "internalType": "address",
          "name": "oldOracle",
          "type": "address"
        },
        {
          "indexed": true,
          "internalType": "address",
          "name": "newOracle",
          "type": "address"
        }
      ],
      "name": "OracleAddressUpdated",
      "type": "event"
    },
    {
      "anonymous": false,
      "inputs": [
        {
          "indexed": true,
          "internalType": "address",
          "name": "customer",
          "type": "address"
        },
        {
          "indexed": false,
          "internalType": "uint256",
          "name": "amount",
          "type": "uint256"
        }
      ],
      "name": "PayoutTriggered",
      "type": "event"
    },
    {
      "anonymous": false,
      "inputs": [
        {
          "indexed": true,
          "internalType": "bytes32",
          "name": "role",
          "type": "bytes32"
        },
        {
          "indexed": true,
          "internalType": "bytes32",
          "name": "previousAdminRole",
          "type": "bytes32"
        },
        {
          "indexed": true,
          "internalType": "bytes32",
          "name": "newAdminRole",
          "type": "bytes32"
        }
      ],
      "name": "RoleAdminChanged",
      "type": "event"
    },
    {
      "anonymous": false,
      "inputs": [
        {
          "indexed": true,
          "internalType": "bytes32",
          "name": "role",
          "type": "bytes32"
        },
        {
          "indexed": true,
          "internalType": "address",
          "name": "account",
          "type": "address"
        },
        {
          "indexed": true,
          "internalType": "address",
          "name": "sender",
          "type": "address"
        }
      ],
      "name": "RoleGranted",
      "type": "event"
    },
    {
      "anonymous": false,
      "inputs": [
        {
          "indexed": true,
          "internalType": "bytes32",
          "name": "role",
          "type": "bytes32"
        },
        {
          "indexed": true,
          "internalType": "address",
          "name": "account",
          "type": "address"
        },
        {
          "indexed": true,
          "internalType": "address",
          "name": "sender",
          "type": "address"
        }
      ],
      "name": "RoleRevoked",
      "type": "event"
    },
    {
      "anonymous": false,
      "inputs": [
        {
          "indexed": false,
          "internalType": "uint256",
          "name": "oldThreshold",
          "type": "uint256"
        },
        {
          "indexed": false,
          "internalType": "uint256",
          "name": "newThreshold",
          "type": "uint256"
        }
      ],
      "name": "ThresholdChanged",
      "type": "event"
    },
    {
      "inputs": [],
      "name": "DEFAULT_ADMIN_ROLE",
      "outputs": [
        {
          "internalType": "bytes32",
          "name": "",
          "type": "bytes32"
        }
      ],
      "stateMutability": "view",
      "type": "function"
    },
    {
      "inputs": [],
      "name": "INSURANCE_ADMIN_ROLE",
      "outputs": [
        {
          "internalType": "bytes32",
          "name": "",
          "type": "bytes32"
        }
      ],
      "stateMutability": "view",
      "type": "function"
    },
    {
      "inputs": [],
      "name": "ORACLE_UPDATER_ROLE",
      "outputs": [
        {
          "internalType": "bytes32",
          "name": "",
          "type": "bytes32"
        }
      ],
      "stateMutability": "view",
      "type": "function"
    },
    {
      "inputs": [
        {
          "internalType": "uint256",
          "name": "_coverage",
          "type": "uint256"
        }
      ],
      "name": "buyInsurance",
      "outputs": [],
      "stateMutability": "payable",
      "type": "function"
    },
    {
      "inputs": [],
      "name": "floodThreshold",
      "outputs": [
        {
          "internalType": "uint256",
          "name": "",
          "type": "uint256"
        }
      ],
      "stateMutability": "view",
      "type": "function"
    },
    {
      "inputs": [],
      "name": "getContractBalance",
      "outputs": [
        {
          "internalType": "uint256",
          "name": "",
          "type": "uint256"
        }
      ],
      "stateMutability": "view",
      "type": "function"
    },
    {
      "inputs": [],
      "name": "getCurrentThreshold",
      "outputs": [
        {
          "internalType": "uint256",
          "name": "",
          "type": "uint256"
        }
      ],
      "stateMutability": "view",
      "type": "function"
    },
    {
      "inputs": [],
      "name": "getLatestPrice",
      "outputs": [
        {
          "internalType": "int256",
          "name": "",
          "type": "int256"
        }
      ],
      "stateMutability": "view",
      "type": "function"
    },
    {
      "inputs": [
        {
          "internalType": "bytes32",
          "name": "role",
          "type": "bytes32"
        }
      ],
      "name": "getRoleAdmin",
      "outputs": [
        {
          "internalType": "bytes32",
          "name": "",
          "type": "bytes32"
        }
      ],
      "stateMutability": "view",
      "type": "function"
    },
    {
      "inputs": [],
      "name": "getThresholdInFeet",
      "outputs": [
        {
          "internalType": "uint256",
          "name": "",
          "type": "uint256"
        }
      ],
      "stateMutability": "view",
      "type": "function"
    },
    {
      "inputs": [
        {
          "internalType": "bytes32",
          "name": "role",
          "type": "bytes32"
        },
        {
          "internalType": "address",
          "name": "account",
          "type": "address"
        }
      ],
      "name": "grantRole",
      "outputs": [],
      "stateMutability": "nonpayable",
      "type": "function"
    },
    {
      "inputs": [
        {
          "internalType": "bytes32",
          "name": "role",
          "type": "bytes32"
        },
        {
          "internalType": "address",
          "name": "account",
          "type": "address"
        }
      ],
      "name": "hasRole",
      "outputs": [
        {
          "internalType": "bool",
          "name": "",
          "type": "bool"
        }
      ],
      "stateMutability": "view",
      "type": "function"
    },
    {
      "inputs": [],
      "name": "insuranceAmount",
      "outputs": [
        {
          "internalType": "uint256",
          "name": "",
          "type": "uint256"
        }
      ],
      "stateMutability": "view",
      "type": "function"
    },
    {
      "inputs": [],
      "name": "isInitialized",
      "outputs": [
        {
          "internalType": "bool",
          "name": "",
          "type": "bool"
        }
      ],
      "stateMutability": "view",
      "type": "function"
    },
    {
      "inputs": [
        {
          "internalType": "address",
          "name": "_customer",
          "type": "address"
        }
      ],
      "name": "isPayoutEligible",
      "outputs": [
        {
          "internalType": "bool",
          "name": "",
          "type": "bool"
        }
      ],
      "stateMutability": "view",
      "type": "function"
    },
    {
      "inputs": [],
      "name": "owner",
      "outputs": [
        {
          "internalType": "address",
          "name": "",
          "type": "address"
        }
      ],
      "stateMutability": "view",
      "type": "function"
    },
    {
      "inputs": [
        {
          "internalType": "address",
          "name": "",
          "type": "address"
        }
      ],
      "name": "policies",
      "outputs": [
        {
          "internalType": "address",
          "name": "customer",
          "type": "address"
        },
        {
          "internalType": "uint256",
          "name": "premium",
          "type": "uint256"
        },
        {
          "internalType": "uint256",
          "name": "coverage",
          "type": "uint256"
        },
        {
          "internalType": "bool",
          "name": "active",
          "type": "bool"
        },
        {
          "internalType": "bool",
          "name": "paidOut",
          "type": "bool"
        }
      ],
      "stateMutability": "view",
      "type": "function"
    },
    {
      "inputs": [],
      "name": "priceFeed",
      "outputs": [
        {
          "internalType": "contract AggregatorV3Interface",
          "name": "",
          "type": "address"
        }
      ],
      "stateMutability": "view",
      "type": "function"
    },
    {
      "inputs": [
        {
          "internalType": "bytes32",
          "name": "role",
          "type": "bytes32"
        },
        {
          "internalType": "address",
          "name": "callerConfirmation",
          "type": "address"
        }
      ],
      "name": "renounceRole",
      "outputs": [],
      "stateMutability": "nonpayable",
      "type": "function"
    },
    {
      "inputs": [
        {
          "internalType": "bytes32",
          "name": "role",
          "type": "bytes32"
        },
        {
          "internalType": "address",
          "name": "account",
          "type": "address"
        }
      ],
      "name": "revokeRole",
      "outputs": [],
      "stateMutability": "nonpayable",
      "type": "function"
    },
    {
      "inputs": [
        {
          "internalType": "uint256",
          "name": "_amount",
          "type": "uint256"
        }
      ],
      "name": "setInsuranceAmount",
      "outputs": [],
      "stateMutability": "nonpayable",
      "type": "function"
    },
    {
      "inputs": [
        {
          "internalType": "address",
          "name": "_oracleAddress",
          "type": "address"
        }
      ],
      "name": "setOracleAddress",
      "outputs": [],
      "stateMutability": "nonpayable",
      "type": "function"
    },
    {
      "inputs": [
        {
          "internalType": "uint256",
          "name": "_newThreshold",
          "type": "uint256"
        }
      ],
      "name": "setThreshold",
      "outputs": [],
      "stateMutability": "nonpayable",
      "type": "function"
    },
    {
      "inputs": [
        {
          "internalType": "bytes4",
          "name": "interfaceId",
          "type": "bytes4"
        }
      ],
      "name": "supportsInterface",
      "outputs": [
        {
          "internalType": "bool",
          "name": "",
          "type": "bool"
        }
      ],
      "stateMutability": "view",
      "type": "function"
    },
    {
      "inputs": [
        {
          "internalType": "address",
          "name": "newOwner",
          "type": "address"
        }
      ],
      "name": "transferOwnership",
      "outputs": [],
      "stateMutability": "nonpayable",
      "type": "function"
    },
    {
      "inputs": [],
      "name": "triggerPayout",
      "outputs": [],
      "stateMutability": "nonpayable",
      "type": "function"
    },
    {
      "inputs": [],
      "name": "withdraw",
      "outputs": [],
      "stateMutability": "nonpayable",
      "type": "function"
    },
    {
      "stateMutability": "payable",
      "type": "receive"
    }
  ],
  "bytecode": "0x60806040526501176592e00060045534801561001a57600080fd5b506040516113c93803806113c98339810160408190526100399161018f565b600580546001600160a01b0319163390811790915561005a906000906100e3565b506100857f9792fdc19ab98adfa72ab2fa98d342618c661e01c406979c105b31eda87f5e6f336100e3565b506100b07f89b7833be53af5649430c7ac49df0baab05039ffab1e3f75ae8a0942c324699a336100e3565b50600180546001600160a01b0319166001600160a01b03929092169190911781556003805460ff191690911790556101bf565b6000828152602081815260408083206001600160a01b038516845290915281205460ff16610185576000838152602081815260408083206001600160a01b03861684529091529020805460ff1916600117905561013d3390565b6001600160a01b0316826001600160a01b0316847f2f8788117e7eff1d82e926ec794901d17c78024a50270940304540a733656f0d60405160405180910390a4506001610189565b5060005b92915050565b6000602082840312156101a157600080fd5b81516001600160a01b03811681146101b857600080fd5b9392505050565b6111fb806101ce6000396000f3fe6080604052600436106101a05760003560e01c80636f9fb98a116100ec578063a217fddf1161008a578063d547741f11610064578063d547741f14610503578063e284097514610523578063ee1ed6b714610539578063f2fde38b1461055957600080fd5b8063a217fddf146104c5578063a74f9965146104da578063a86a658c146104f057600080fd5b80638da5cb5b116100c65780638da5cb5b146104505780638e15f4731461047057806391d1485414610485578063960bfe04146104a557600080fd5b80636f9fb98a146103d1578063741bef1a146103e4578063741fe1261461041c57600080fd5b8063248a9ca31161015957806336568abe1161013357806336568abe14610362578063392e53cd146103825780633ccfd60b1461039c5780634c69c00f146103b157600080fd5b8063248a9ca3146102fd5780632caecd3d1461032d5780632f2ff15d1461034257600080fd5b806301ffc9a7146101ac57806305a95f04146101e157806315a0def1146101f85780631732d330146102185780631b71bf6e1461025a57806320e986981461026f57600080fd5b366101a757005b600080fd5b3480156101b857600080fd5b506101cc6101c736600461108a565b610579565b60405190151581526020015b60405180910390f35b3480156101ed57600080fd5b506101f66105b0565b005b34801561020457600080fd5b506101cc6102133660046110d7565b610796565b34801561022457600080fd5b5061024c7f9792fdc19ab98adfa72ab2fa98d342618c661e01c406979c105b31eda87f5e6f81565b6040519081526020016101d8565b34801561026657600080fd5b5060045461024c565b34801561027b57600080fd5b506102c761028a3660046110d7565b60066020526000908152604090208054600182015460028301546003909301546001600160a01b0390921692909160ff8082169161010090041685565b604080516001600160a01b039096168652602086019490945292840191909152151560608301521515608082015260a0016101d8565b34801561030957600080fd5b5061024c6103183660046110f2565b60009081526020819052604090206001015490565b34801561033957600080fd5b5061024c610829565b34801561034e57600080fd5b506101f661035d36600461110b565b610843565b34801561036e57600080fd5b506101f661037d36600461110b565b61086e565b34801561038e57600080fd5b506003546101cc9060ff1681565b3480156103a857600080fd5b506101f66108a6565b3480156103bd57600080fd5b506101f66103cc3660046110d7565b610982565b3480156103dd57600080fd5b504761024c565b3480156103f057600080fd5b50600154610404906001600160a01b031681565b6040516001600160a01b0390911681526020016101d8565b34801561042857600080fd5b5061024c7f89b7833be53af5649430c7ac49df0baab05039ffab1e3f75ae8a0942c324699a81565b34801561045c57600080fd5b50600554610404906001600160a01b031681565b34801561047c57600080fd5b5061024c610a2f565b34801561049157600080fd5b506101cc6104a036600461110b565b610ab4565b3480156104b157600080fd5b506101f66104c03660046110f2565b610add565b3480156104d157600080fd5b5061024c600081565b3480156104e657600080fd5b5061024c60025481565b6101f66104fe3660046110f2565b610c11565b34801561050f57600080fd5b506101f661051e36600461110b565b610e2e565b34801561052f57600080fd5b5061024c60045481565b34801561054557600080fd5b506101f66105543660046110f2565b610e53565b34801561056557600080fd5b506101f66105743660046110d7565b610e83565b60006001600160e01b03198216637965db0b60e01b14806105aa57506301ffc9a760e01b6001600160e01b03198316145b92915050565b336000908152600660205260409020600381015460ff1661060b5760405162461bcd60e51b815260206004820152601060248201526f4e6f2061637469766520706f6c69637960801b60448201526064015b60405180910390fd5b6003810154610100900460ff161561065d5760405162461bcd60e51b815260206004820152601560248201527414185e5bdd5d08185b1c9958591e481a5cdcdd5959605a1b6044820152606401610602565b6000610667610a2f565b90506004548110156106bb5760405162461bcd60e51b815260206004820152601b60248201527f466c6f6f64206c6576656c2062656c6f77207468726573686f6c6400000000006044820152606401610602565b60038201805461ffff1916610100179055600282015460405160009133918381818185875af1925050503d8060008114610711576040519150601f19603f3d011682016040523d82523d6000602084013e610716565b606091505b50509050806107575760405162461bcd60e51b815260206004820152600d60248201526c14185e5bdd5d0819985a5b1959609a1b6044820152606401610602565b600283015460405190815233907faa4198e15ce4666385864542abb6c33c50cc9415ee36bb7eb4e6f8188fff63479060200160405180910390a2505050565b6001600160a01b038082166000908152600660209081526040808320815160a081018352815490951685526001810154928501929092526002820154908401526003015460ff8082161580156060860152610100909204161515608084015290919080610804575080608001515b156108125750600092915050565b600061081c610a2f565b6004541115949350505050565b600064174876e80060045461083e9190611137565b905090565b60008281526020819052604090206001015461085e81610f43565b6108688383610f50565b50505050565b6001600160a01b03811633146108975760405163334bd91960e11b815260040160405180910390fd5b6108a18282610fe2565b505050565b60006108b181610f43565b47806108f65760405162461bcd60e51b81526020600482015260146024820152734e6f2066756e647320746f20776974686472617760601b6044820152606401610602565b604051600090339083908381818185875af1925050503d8060008114610938576040519150601f19603f3d011682016040523d82523d6000602084013e61093d565b606091505b50509050806108a15760405162461bcd60e51b815260206004820152601160248201527015da5d1a191c985dd85b0819985a5b1959607a1b6044820152606401610602565b600061098d81610f43565b6001600160a01b0382166109dc5760405162461bcd60e51b8152602060048201526016602482015275496e76616c6964206f7261636c65206164647265737360501b6044820152606401610602565b600180546001600160a01b038481166001600160a01b0319831681179093556040519116919082907fd3afd1676752459d3aa8b6f73633fac8efd724610da9c4cd8d8e4fa1631841fb90600090a3505050565b600080600160009054906101000a90046001600160a01b03166001600160a01b031663feaf968c6040518163ffffffff1660e01b815260040160a060405180830381865afa158015610a85573d6000803e3d6000fd5b505050506040513d601f19601f82011682018060405250810190610aa99190611173565b509195945050505050565b6000918252602082815260408084206001600160a01b0393909316845291905290205460ff1690565b6005546001600160a01b03163314610b315760405162461bcd60e51b81526020600482015260176024820152762ab730baba3437b934bd32b21d102737ba1037bbb732b960491b6044820152606401610602565b60008111610b815760405162461bcd60e51b815260206004820152601a60248201527f5468726573686f6c64206d75737420626520706f7369746976650000000000006044820152606401610602565b6509184e72a000811115610bcc5760405162461bcd60e51b81526020600482015260126024820152710a8d0e4cae6d0ded8c840e8dede40d0d2ced60731b6044820152606401610602565b600480549082905560408051828152602081018490527f3164947cf0f49f08dd0cd80e671535b1e11590d347c55dcaa97ba3c24a96b33a910160405180910390a15050565b60003411610c615760405162461bcd60e51b815260206004820152601e60248201527f5072656d69756d206d7573742062652067726561746572207468616e203000006044820152606401610602565b60008111610cb15760405162461bcd60e51b815260206004820152601f60248201527f436f766572616765206d7573742062652067726561746572207468616e2030006044820152606401610602565b3360009081526006602052604090206003015460ff1615610d0c5760405162461bcd60e51b8152602060048201526015602482015274506f6c69637920616c72656164792061637469766560581b6044820152606401610602565b6000610d19600a83611137565b905080341015610d625760405162461bcd60e51b8152602060048201526014602482015273496e73756666696369656e74207072656d69756d60601b6044820152606401610602565b6040805160a0810182523380825234602080840182815284860188815260016060870181815260006080890181815288825260068752908a9020985189546001600160a01b0319166001600160a01b03909116178955935191880191909155905160028701555160039095018054915161ffff1990921695151561ff0019169590951761010091151591909102179093558351908152918201859052917f6c165bac7b911fd3865d9050099e5e033490a3e0b4a1771f691fccca2b3c0ed1910160405180910390a25050565b600082815260208190526040902060010154610e4981610f43565b6108688383610fe2565b7f89b7833be53af5649430c7ac49df0baab05039ffab1e3f75ae8a0942c324699a610e7d81610f43565b50600255565b6005546001600160a01b03163314610ed75760405162461bcd60e51b81526020600482015260176024820152762ab730baba3437b934bd32b21d102737ba1037bbb732b960491b6044820152606401610602565b6001600160a01b038116610f215760405162461bcd60e51b815260206004820152601160248201527024b73b30b634b2103732bb9037bbb732b960791b6044820152606401610602565b600580546001600160a01b0319166001600160a01b0392909216919091179055565b610f4d813361104d565b50565b6000610f5c8383610ab4565b610fda576000838152602081815260408083206001600160a01b03861684529091529020805460ff19166001179055610f923390565b6001600160a01b0316826001600160a01b0316847f2f8788117e7eff1d82e926ec794901d17c78024a50270940304540a733656f0d60405160405180910390a45060016105aa565b5060006105aa565b6000610fee8383610ab4565b15610fda576000838152602081815260408083206001600160a01b0386168085529252808320805460ff1916905551339286917ff6391f5c32d9c69d2a47ea670b442974b53935d1edc7fd64eb21e047a839171b9190a45060016105aa565b6110578282610ab4565b6110865760405163e2517d3f60e01b81526001600160a01b038216600482015260248101839052604401610602565b5050565b60006020828403121561109c57600080fd5b81356001600160e01b0319811681146110b457600080fd5b9392505050565b80356001600160a01b03811681146110d257600080fd5b919050565b6000602082840312156110e957600080fd5b6110b4826110bb565b60006020828403121561110457600080fd5b5035919050565b6000806040838503121561111e57600080fd5b8235915061112e602084016110bb565b90509250929050565b60008261115457634e487b7160e01b600052601260045260246000fd5b500490565b805169ffffffffffffffffffff811681146110d257600080fd5b600080600080600060a0868803121561118b57600080fd5b61119486611159565b602087015160408801516060890151929750909550935091506111b960808701611159565b9050929550929590935056fea2646970667358221220b810e1ed7245df383223a97cf131e3a3c280c3284743f84aec7106d23b2b6c7f64736f6c634300081c0033",
  "linkReferences": {},
  "deployedLinkReferences": {}
}