{
  "_format": "hh-sol-artifact-1",
  "contractName": "Paramify",
  "sourceName": "contracts/Paramify.sol",
  "abi": [
    {
      "inputs": [
        {
          "internalType": "address",
          "name": "_priceFeedAddress",
          "type": "address"
        }
      ],
      "stateMutability": "nonpayable",
      "type": "constructor"
    },
    {
      "inputs": [],
      "name": "AccessControlBadConfirmation",
      "type": "error"
    },
    {
      "inputs": [
        {
          "internalType": "address",
          "name": "account",
          "type": "address"
        },
        {
          "internalType": "bytes32",
          "name": "neededRole",
          "type": "bytes32"
        }
      ],
      "name": "AccessControlUnauthorizedAccount",
      "type": "error"
    },
    {
      "anonymous": false,
      "inputs": [
        {
          "indexed": true,
          "internalType": "address",
          "name": "customer",
          "type": "address"
        },
        {
          "indexed": false,
          "internalType": "uint256",
          "name": "premium",
          "type": "uint256"
        },
        {
          "indexed": false,
          "internalType": "uint256",
          "name": "coverage",
          "type": "uint256"
        }
      ],
      "name": "InsurancePurchased",
      "type": "event"
    },
    {
      "anonymous": false,
      "inputs": [
        {
          "indexed": true,
          "internalType": "address",
          "name": "oldOracle",
          "type": "address"
        },
        {
          "indexed": true,
          "internalType": "address",
          "name": "newOracle",
          "type": "address"
        }
      ],
      "name": "OracleAddressUpdated",
      "type": "event"
    },
    {
      "anonymous": false,
      "inputs": [
        {
          "indexed": true,
          "internalType": "address",
          "name": "customer",
          "type": "address"
        },
        {
          "indexed": false,
          "internalType": "uint256",
          "name": "amount",
          "type": "uint256"
        }
      ],
      "name": "PayoutTriggered",
      "type": "event"
    },
    {
      "anonymous": false,
      "inputs": [
        {
          "indexed": true,
          "internalType": "bytes32",
          "name": "role",
          "type": "bytes32"
        },
        {
          "indexed": true,
          "internalType": "bytes32",
          "name": "previousAdminRole",
          "type": "bytes32"
        },
        {
          "indexed": true,
          "internalType": "bytes32",
          "name": "newAdminRole",
          "type": "bytes32"
        }
      ],
      "name": "RoleAdminChanged",
      "type": "event"
    },
    {
      "anonymous": false,
      "inputs": [
        {
          "indexed": true,
          "internalType": "bytes32",
          "name": "role",
          "type": "bytes32"
        },
        {
          "indexed": true,
          "internalType": "address",
          "name": "account",
          "type": "address"
        },
        {
          "indexed": true,
          "internalType": "address",
          "name": "sender",
          "type": "address"
        }
      ],
      "name": "RoleGranted",
      "type": "event"
    },
    {
      "anonymous": false,
      "inputs": [
        {
          "indexed": true,
          "internalType": "bytes32",
          "name": "role",
          "type": "bytes32"
        },
        {
          "indexed": true,
          "internalType": "address",
          "name": "account",
          "type": "address"
        },
        {
          "indexed": true,
          "internalType": "address",
          "name": "sender",
          "type": "address"
        }
      ],
      "name": "RoleRevoked",
      "type": "event"
    },
    {
      "anonymous": false,
      "inputs": [
        {
          "indexed": false,
          "internalType": "uint256",
          "name": "oldThreshold",
          "type": "uint256"
        },
        {
          "indexed": false,
          "internalType": "uint256",
          "name": "newThreshold",
          "type": "uint256"
        }
      ],
      "name": "ThresholdChanged",
      "type": "event"
    },
    {
      "inputs": [],
      "name": "DEFAULT_ADMIN_ROLE",
      "outputs": [
        {
          "internalType": "bytes32",
          "name": "",
          "type": "bytes32"
        }
      ],
      "stateMutability": "view",
      "type": "function"
    },
    {
      "inputs": [],
      "name": "INSURANCE_ADMIN_ROLE",
      "outputs": [
        {
          "internalType": "bytes32",
          "name": "",
          "type": "bytes32"
        }
      ],
      "stateMutability": "view",
      "type": "function"
    },
    {
      "inputs": [],
      "name": "ORACLE_UPDATER_ROLE",
      "outputs": [
        {
          "internalType": "bytes32",
          "name": "",
          "type": "bytes32"
        }
      ],
      "stateMutability": "view",
      "type": "function"
    },
    {
      "inputs": [
        {
          "internalType": "uint256",
          "name": "_coverage",
          "type": "uint256"
        }
      ],
      "name": "buyInsurance",
      "outputs": [],
      "stateMutability": "payable",
      "type": "function"
    },
    {
      "inputs": [],
      "name": "floodThreshold",
      "outputs": [
        {
          "internalType": "uint256",
          "name": "",
          "type": "uint256"
        }
      ],
      "stateMutability": "view",
      "type": "function"
    },
    {
      "inputs": [],
      "name": "getContractBalance",
      "outputs": [
        {
          "internalType": "uint256",
          "name": "",
          "type": "uint256"
        }
      ],
      "stateMutability": "view",
      "type": "function"
    },
    {
      "inputs": [],
      "name": "getCurrentThreshold",
      "outputs": [
        {
          "internalType": "uint256",
          "name": "",
          "type": "uint256"
        }
      ],
      "stateMutability": "view",
      "type": "function"
    },
    {
      "inputs": [],
      "name": "getLatestPrice",
      "outputs": [
        {
          "internalType": "int256",
          "name": "",
          "type": "int256"
        }
      ],
      "stateMutability": "view",
      "type": "function"
    },
    {
      "inputs": [
        {
          "internalType": "bytes32",
          "name": "role",
          "type": "bytes32"
        }
      ],
      "name": "getRoleAdmin",
      "outputs": [
        {
          "internalType": "bytes32",
          "name": "",
          "type": "bytes32"
        }
      ],
      "stateMutability": "view",
      "type": "function"
    },
    {
      "inputs": [],
      "name": "getThresholdInFeet",
      "outputs": [
        {
          "internalType": "uint256",
          "name": "",
          "type": "uint256"
        }
      ],
      "stateMutability": "view",
      "type": "function"
    },
    {
      "inputs": [
        {
          "internalType": "bytes32",
          "name": "role",
          "type": "bytes32"
        },
        {
          "internalType": "address",
          "name": "account",
          "type": "address"
        }
      ],
      "name": "grantRole",
      "outputs": [],
      "stateMutability": "nonpayable",
      "type": "function"
    },
    {
      "inputs": [
        {
          "internalType": "bytes32",
          "name": "role",
          "type": "bytes32"
        },
        {
          "internalType": "address",
          "name": "account",
          "type": "address"
        }
      ],
      "name": "hasRole",
      "outputs": [
        {
          "internalType": "bool",
          "name": "",
          "type": "bool"
        }
      ],
      "stateMutability": "view",
      "type": "function"
    },
    {
      "inputs": [],
      "name": "insuranceAmount",
      "outputs": [
        {
          "internalType": "uint256",
          "name": "",
          "type": "uint256"
        }
      ],
      "stateMutability": "view",
      "type": "function"
    },
    {
      "inputs": [],
      "name": "isInitialized",
      "outputs": [
        {
          "internalType": "bool",
          "name": "",
          "type": "bool"
        }
      ],
      "stateMutability": "view",
      "type": "function"
    },
    {
      "inputs": [
        {
          "internalType": "address",
          "name": "_customer",
          "type": "address"
        }
      ],
      "name": "isPayoutEligible",
      "outputs": [
        {
          "internalType": "bool",
          "name": "",
          "type": "bool"
        }
      ],
      "stateMutability": "view",
      "type": "function"
    },
    {
      "inputs": [],
      "name": "owner",
      "outputs": [
        {
          "internalType": "address",
          "name": "",
          "type": "address"
        }
      ],
      "stateMutability": "view",
      "type": "function"
    },
    {
      "inputs": [
        {
          "internalType": "address",
          "name": "",
          "type": "address"
        }
      ],
      "name": "policies",
      "outputs": [
        {
          "internalType": "address",
          "name": "customer",
          "type": "address"
        },
        {
          "internalType": "uint256",
          "name": "premium",
          "type": "uint256"
        },
        {
          "internalType": "uint256",
          "name": "coverage",
          "type": "uint256"
        },
        {
          "internalType": "bool",
          "name": "active",
          "type": "bool"
        },
        {
          "internalType": "bool",
          "name": "paidOut",
          "type": "bool"
        }
      ],
      "stateMutability": "view",
      "type": "function"
    },
    {
      "inputs": [],
      "name": "priceFeed",
      "outputs": [
        {
          "internalType": "contract AggregatorV3Interface",
          "name": "",
          "type": "address"
        }
      ],
      "stateMutability": "view",
      "type": "function"
    },
    {
      "inputs": [
        {
          "internalType": "bytes32",
          "name": "role",
          "type": "bytes32"
        },
        {
          "internalType": "address",
          "name": "callerConfirmation",
          "type": "address"
        }
      ],
      "name": "renounceRole",
      "outputs": [],
      "stateMutability": "nonpayable",
      "type": "function"
    },
    {
      "inputs": [
        {
          "internalType": "bytes32",
          "name": "role",
          "type": "bytes32"
        },
        {
          "internalType": "address",
          "name": "account",
          "type": "address"
        }
      ],
      "name": "revokeRole",
      "outputs": [],
      "stateMutability": "nonpayable",
      "type": "function"
    },
    {
      "inputs": [
        {
          "internalType": "uint256",
          "name": "_amount",
          "type": "uint256"
        }
      ],
      "name": "setInsuranceAmount",
      "outputs": [],
      "stateMutability": "nonpayable",
      "type": "function"
    },
    {
      "inputs": [
        {
          "internalType": "address",
          "name": "_oracleAddress",
          "type": "address"
        }
      ],
      "name": "setOracleAddress",
      "outputs": [],
      "stateMutability": "nonpayable",
      "type": "function"
    },
    {
      "inputs": [
        {
          "internalType": "uint256",
          "name": "_newThreshold",
          "type": "uint256"
        }
      ],
      "name": "setThreshold",
      "outputs": [],
      "stateMutability": "nonpayable",
      "type": "function"
    },
    {
      "inputs": [
        {
          "internalType": "bytes4",
          "name": "interfaceId",
          "type": "bytes4"
        }
      ],
      "name": "supportsInterface",
      "outputs": [
        {
          "internalType": "bool",
          "name": "",
          "type": "bool"
        }
      ],
      "stateMutability": "view",
      "type": "function"
    },
    {
      "inputs": [
        {
          "internalType": "address",
          "name": "newOwner",
          "type": "address"
        }
      ],
      "name": "transferOwnership",
      "outputs": [],
      "stateMutability": "nonpayable",
      "type": "function"
    },
    {
      "inputs": [],
      "name": "triggerPayout",
      "outputs": [],
      "stateMutability": "nonpayable",
      "type": "function"
    },
    {
      "inputs": [],
      "name": "withdraw",
      "outputs": [],
      "stateMutability": "nonpayable",
      "type": "function"
    },
    {
      "stateMutability": "payable",
      "type": "receive"
    }
  ],
  "bytecode": "60806040526501176592e00060045534801561001a57600080fd5b5060405161282f38038061282f833981810160405281019061003c9190610327565b33600560006101000a81548173ffffffffffffffffffffffffffffffffffffffff021916908373ffffffffffffffffffffffffffffffffffffffff1602179055506100906000801b3361015560201b60201c565b506100c17f9792fdc19ab98adfa72ab2fa98d342618c661e01c406979c105b31eda87f5e6f3361015560201b60201c565b506100f27f89b7833be53af5649430c7ac49df0baab05039ffab1e3f75ae8a0942c324699a3361015560201b60201c565b5080600160006101000a81548173ffffffffffffffffffffffffffffffffffffffff021916908373ffffffffffffffffffffffffffffffffffffffff1602179055506001600360006101000a81548160ff02191690831515021790555050610354565b6000610167838361025260201b60201c565b61024757600160008085815260200190815260200160002060000160008473ffffffffffffffffffffffffffffffffffffffff1673ffffffffffffffffffffffffffffffffffffffff16815260200190815260200160002060006101000a81548160ff0219169083151502179055506101e46102bc60201b60201c565b73ffffffffffffffffffffffffffffffffffffffff168273ffffffffffffffffffffffffffffffffffffffff16847f2f8788117e7eff1d82e926ec794901d17c78024a50270940304540a733656f0d60405160405180910390a46001905061024c565b600090505b92915050565b600080600084815260200190815260200160002060000160008373ffffffffffffffffffffffffffffffffffffffff1673ffffffffffffffffffffffffffffffffffffffff16815260200190815260200160002060009054906101000a900460ff16905092915050565b600033905090565b600080fd5b600073ffffffffffffffffffffffffffffffffffffffff82169050919050565b60006102f4826102c9565b9050919050565b610304816102e9565b811461030f57600080fd5b50565b600081519050610321816102fb565b92915050565b60006020828403121561033d5761033c6102c4565b5b600061034b84828501610312565b91505092915050565b6124cc806103636000396000f3fe6080604052600436106101a05760003560e01c80636f9fb98a116100ec578063a217fddf1161008a578063d547741f11610064578063d547741f146105a8578063e2840975146105d1578063ee1ed6b7146105fc578063f2fde38b14610625576101a7565b8063a217fddf14610536578063a74f996514610561578063a86a658c1461058c576101a7565b80638da5cb5b116100c65780638da5cb5b1461047a5780638e15f473146104a557806391d14854146104d0578063960bfe041461050d576101a7565b80636f9fb98a146103f9578063741bef1a14610424578063741fe1261461044f576101a7565b8063248a9ca31161015957806336568abe1161013357806336568abe14610365578063392e53cd1461038e5780633ccfd60b146103b95780634c69c00f146103d0576101a7565b8063248a9ca3146102d45780632caecd3d146103115780632f2ff15d1461033c576101a7565b806301ffc9a7146101ac57806305a95f04146101e957806315a0def1146102005780631732d3301461023d5780631b71bf6e1461026857806320e9869814610293576101a7565b366101a757005b600080fd5b3480156101b857600080fd5b506101d360048036038101906101ce91906118c8565b61064e565b6040516101e09190611910565b60405180910390f35b3480156101f557600080fd5b506101fe6106c8565b005b34801561020c57600080fd5b5061022760048036038101906102229190611989565b610940565b6040516102349190611910565b60405180910390f35b34801561024957600080fd5b50610252610a6c565b60405161025f91906119cf565b60405180910390f35b34801561027457600080fd5b5061027d610a90565b60405161028a9190611a03565b60405180910390f35b34801561029f57600080fd5b506102ba60048036038101906102b59190611989565b610a9a565b6040516102cb959493929190611a2d565b60405180910390f35b3480156102e057600080fd5b506102fb60048036038101906102f69190611aac565b610b0a565b60405161030891906119cf565b60405180910390f35b34801561031d57600080fd5b50610326610b29565b6040516103339190611a03565b60405180910390f35b34801561034857600080fd5b50610363600480360381019061035e9190611ad9565b610b43565b005b34801561037157600080fd5b5061038c60048036038101906103879190611ad9565b610b65565b005b34801561039a57600080fd5b506103a3610be0565b6040516103b09190611910565b60405180910390f35b3480156103c557600080fd5b506103ce610bf3565b005b3480156103dc57600080fd5b506103f760048036038101906103f29190611989565b610cf9565b005b34801561040557600080fd5b5061040e610e3c565b60405161041b9190611a03565b60405180910390f35b34801561043057600080fd5b50610439610e44565b6040516104469190611b78565b60405180910390f35b34801561045b57600080fd5b50610464610e6a565b60405161047191906119cf565b60405180910390f35b34801561048657600080fd5b5061048f610e8e565b60405161049c9190611b93565b60405180910390f35b3480156104b157600080fd5b506104ba610eb4565b6040516104c79190611bc7565b60405180910390f35b3480156104dc57600080fd5b506104f760048036038101906104f29190611ad9565b610f55565b6040516105049190611910565b60405180910390f35b34801561051957600080fd5b50610534600480360381019061052f9190611c0e565b610fbf565b005b34801561054257600080fd5b5061054b611126565b60405161055891906119cf565b60405180910390f35b34801561056d57600080fd5b5061057661112d565b6040516105839190611a03565b60405180910390f35b6105a660048036038101906105a19190611c0e565b611133565b005b3480156105b457600080fd5b506105cf60048036038101906105ca9190611ad9565b611411565b005b3480156105dd57600080fd5b506105e6611433565b6040516105f39190611a03565b60405180910390f35b34801561060857600080fd5b50610623600480360381019061061e9190611c0e565b611439565b005b34801561063157600080fd5b5061064c60048036038101906106479190611989565b61146e565b005b60007f7965db0b000000000000000000000000000000000000000000000000000000007bffffffffffffffffffffffffffffffffffffffffffffffffffffffff1916827bffffffffffffffffffffffffffffffffffffffffffffffffffffffff191614806106c157506106c0826115b1565b5b9050919050565b6000600660003373ffffffffffffffffffffffffffffffffffffffff1673ffffffffffffffffffffffffffffffffffffffff16815260200190815260200160002090508060030160009054906101000a900460ff1661075c576040517f08c379a000000000000000000000000000000000000000000000000000000000815260040161075390611c98565b60405180910390fd5b8060030160019054906101000a900460ff16156107ae576040517f08c379a00000000000000000000000000000000000000000000000000000000081526004016107a590611d04565b60405180910390fd5b60006107b8610eb4565b90506004548110156107ff576040517f08c379a00000000000000000000000000000000000000000000000000000000081526004016107f690611d70565b60405180910390fd5b60018260030160016101000a81548160ff02191690831515021790555060008260030160006101000a81548160ff02191690831515021790555060003373ffffffffffffffffffffffffffffffffffffffff16836002015460405161086390611dc1565b60006040518083038185875af1925050503d80600081146108a0576040519150601f19603f3d011682016040523d82523d6000602084013e6108a5565b606091505b50509050806108e9576040517f08c379a00000000000000000000000000000000000000000000000000000000081526004016108e090611e22565b60405180910390fd5b3373ffffffffffffffffffffffffffffffffffffffff167faa4198e15ce4666385864542abb6c33c50cc9415ee36bb7eb4e6f8188fff634784600201546040516109339190611a03565b60405180910390a2505050565b600080600660008473ffffffffffffffffffffffffffffffffffffffff1673ffffffffffffffffffffffffffffffffffffffff1681526020019081526020016000206040518060a00160405290816000820160009054906101000a900473ffffffffffffffffffffffffffffffffffffffff1673ffffffffffffffffffffffffffffffffffffffff1673ffffffffffffffffffffffffffffffffffffffff16815260200160018201548152602001600282015481526020016003820160009054906101000a900460ff161515151581526020016003820160019054906101000a900460ff161515151581525050905080606001511580610a41575080608001515b15610a50576000915050610a67565b6000610a5a610eb4565b9050600454811015925050505b919050565b7f9792fdc19ab98adfa72ab2fa98d342618c661e01c406979c105b31eda87f5e6f81565b6000600454905090565b60066020528060005260406000206000915090508060000160009054906101000a900473ffffffffffffffffffffffffffffffffffffffff16908060010154908060020154908060030160009054906101000a900460ff16908060030160019054906101000a900460ff16905085565b6000806000838152602001908152602001600020600101549050919050565b600064174876e800600454610b3e9190611e71565b905090565b610b4c82610b0a565b610b558161161b565b610b5f838361162f565b50505050565b610b6d611720565b73ffffffffffffffffffffffffffffffffffffffff168173ffffffffffffffffffffffffffffffffffffffff1614610bd1576040517f6697b23200000000000000000000000000000000000000000000000000000000815260040160405180910390fd5b610bdb8282611728565b505050565b600360009054906101000a900460ff1681565b6000801b610c008161161b565b600047905060008111610c48576040517f08c379a0000000000000000000000000000000000000000000000000000000008152600401610c3f90611eee565b60405180910390fd5b60003373ffffffffffffffffffffffffffffffffffffffff1682604051610c6e90611dc1565b60006040518083038185875af1925050503d8060008114610cab576040519150601f19603f3d011682016040523d82523d6000602084013e610cb0565b606091505b5050905080610cf4576040517f08c379a0000000000000000000000000000000000000000000000000000000008152600401610ceb90611f5a565b60405180910390fd5b505050565b6000801b610d068161161b565b600073ffffffffffffffffffffffffffffffffffffffff168273ffffffffffffffffffffffffffffffffffffffff1603610d75576040517f08c379a0000000000000000000000000000000000000000000000000000000008152600401610d6c90611fc6565b60405180910390fd5b6000600160009054906101000a900473ffffffffffffffffffffffffffffffffffffffff16905082600160006101000a81548173ffffffffffffffffffffffffffffffffffffffff021916908373ffffffffffffffffffffffffffffffffffffffff1602179055508273ffffffffffffffffffffffffffffffffffffffff168173ffffffffffffffffffffffffffffffffffffffff167fd3afd1676752459d3aa8b6f73633fac8efd724610da9c4cd8d8e4fa1631841fb60405160405180910390a3505050565b600047905090565b600160009054906101000a900473ffffffffffffffffffffffffffffffffffffffff1681565b7f89b7833be53af5649430c7ac49df0baab05039ffab1e3f75ae8a0942c324699a81565b600560009054906101000a900473ffffffffffffffffffffffffffffffffffffffff1681565b600080600160009054906101000a900473ffffffffffffffffffffffffffffffffffffffff1673ffffffffffffffffffffffffffffffffffffffff1663feaf968c6040518163ffffffff1660e01b815260040160a060405180830381865afa158015610f24573d6000803e3d6000fd5b505050506040513d601f19601f82011682018060405250810190610f489190612069565b5050509150508091505090565b600080600084815260200190815260200160002060000160008373ffffffffffffffffffffffffffffffffffffffff1673ffffffffffffffffffffffffffffffffffffffff16815260200190815260200160002060009054906101000a900460ff16905092915050565b600560009054906101000a900473ffffffffffffffffffffffffffffffffffffffff1673ffffffffffffffffffffffffffffffffffffffff163373ffffffffffffffffffffffffffffffffffffffff161461104f576040517f08c379a000000000000000000000000000000000000000000000000000000000815260040161104690612130565b60405180910390fd5b60008111611092576040517f08c379a00000000000000000000000000000000000000000000000000000000081526004016110899061219c565b60405180910390fd5b6509184e72a0008111156110db576040517f08c379a00000000000000000000000000000000000000000000000000000000081526004016110d290612208565b60405180910390fd5b60006004549050816004819055507f3164947cf0f49f08dd0cd80e671535b1e11590d347c55dcaa97ba3c24a96b33a818360405161111a929190612228565b60405180910390a15050565b6000801b81565b60025481565b60003411611176576040517f08c379a000000000000000000000000000000000000000000000000000000000815260040161116d9061229d565b60405180910390fd5b600081116111b9576040517f08c379a00000000000000000000000000000000000000000000000000000000081526004016111b090612309565b60405180910390fd5b600660003373ffffffffffffffffffffffffffffffffffffffff1673ffffffffffffffffffffffffffffffffffffffff16815260200190815260200160002060030160009054906101000a900460ff1615611249576040517f08c379a000000000000000000000000000000000000000000000000000000000815260040161124090612375565b60405180910390fd5b6000600a826112589190611e71565b90508034101561129d576040517f08c379a0000000000000000000000000000000000000000000000000000000008152600401611294906123e1565b60405180910390fd5b6040518060a001604052803373ffffffffffffffffffffffffffffffffffffffff16815260200134815260200183815260200160011515815260200160001515815250600660003373ffffffffffffffffffffffffffffffffffffffff1673ffffffffffffffffffffffffffffffffffffffff16815260200190815260200160002060008201518160000160006101000a81548173ffffffffffffffffffffffffffffffffffffffff021916908373ffffffffffffffffffffffffffffffffffffffff160217905550602082015181600101556040820151816002015560608201518160030160006101000a81548160ff02191690831515021790555060808201518160030160016101000a81548160ff0219169083151502179055509050503373ffffffffffffffffffffffffffffffffffffffff167f6c165bac7b911fd3865d9050099e5e033490a3e0b4a1771f691fccca2b3c0ed13484604051611405929190612228565b60405180910390a25050565b61141a82610b0a565b6114238161161b565b61142d8383611728565b50505050565b60045481565b7f89b7833be53af5649430c7ac49df0baab05039ffab1e3f75ae8a0942c324699a6114638161161b565b816002819055505050565b600560009054906101000a900473ffffffffffffffffffffffffffffffffffffffff1673ffffffffffffffffffffffffffffffffffffffff163373ffffffffffffffffffffffffffffffffffffffff16146114fe576040517f08c379a00000000000000000000000000000000000000000000000000000000081526004016114f590612130565b60405180910390fd5b600073ffffffffffffffffffffffffffffffffffffffff168173ffffffffffffffffffffffffffffffffffffffff160361156d576040517f08c379a00000000000000000000000000000000000000000000000000000000081526004016115649061244d565b60405180910390fd5b80600560006101000a81548173ffffffffffffffffffffffffffffffffffffffff021916908373ffffffffffffffffffffffffffffffffffffffff16021790555050565b60007f01ffc9a7000000000000000000000000000000000000000000000000000000007bffffffffffffffffffffffffffffffffffffffffffffffffffffffff1916827bffffffffffffffffffffffffffffffffffffffffffffffffffffffff1916149050919050565b61162c81611627611720565b61181a565b50565b600061163b8383610f55565b61171557600160008085815260200190815260200160002060000160008473ffffffffffffffffffffffffffffffffffffffff1673ffffffffffffffffffffffffffffffffffffffff16815260200190815260200160002060006101000a81548160ff0219169083151502179055506116b2611720565b73ffffffffffffffffffffffffffffffffffffffff168273ffffffffffffffffffffffffffffffffffffffff16847f2f8788117e7eff1d82e926ec794901d17c78024a50270940304540a733656f0d60405160405180910390a46001905061171a565b600090505b92915050565b600033905090565b60006117348383610f55565b1561180f57600080600085815260200190815260200160002060000160008473ffffffffffffffffffffffffffffffffffffffff1673ffffffffffffffffffffffffffffffffffffffff16815260200190815260200160002060006101000a81548160ff0219169083151502179055506117ac611720565b73ffffffffffffffffffffffffffffffffffffffff168273ffffffffffffffffffffffffffffffffffffffff16847ff6391f5c32d9c69d2a47ea670b442974b53935d1edc7fd64eb21e047a839171b60405160405180910390a460019050611814565b600090505b92915050565b6118248282610f55565b6118675780826040517fe2517d3f00000000000000000000000000000000000000000000000000000000815260040161185e92919061246d565b60405180910390fd5b5050565b600080fd5b60007fffffffff0000000000000000000000000000000000000000000000000000000082169050919050565b6118a581611870565b81146118b057600080fd5b50565b6000813590506118c28161189c565b92915050565b6000602082840312156118de576118dd61186b565b5b60006118ec848285016118b3565b91505092915050565b60008115159050919050565b61190a816118f5565b82525050565b60006020820190506119256000830184611901565b92915050565b600073ffffffffffffffffffffffffffffffffffffffff82169050919050565b60006119568261192b565b9050919050565b6119668161194b565b811461197157600080fd5b50565b6000813590506119838161195d565b92915050565b60006020828403121561199f5761199e61186b565b5b60006119ad84828501611974565b91505092915050565b6000819050919050565b6119c9816119b6565b82525050565b60006020820190506119e460008301846119c0565b92915050565b6000819050919050565b6119fd816119ea565b82525050565b6000602082019050611a1860008301846119f4565b92915050565b611a278161194b565b82525050565b600060a082019050611a426000830188611a1e565b611a4f60208301876119f4565b611a5c60408301866119f4565b611a696060830185611901565b611a766080830184611901565b9695505050505050565b611a89816119b6565b8114611a9457600080fd5b50565b600081359050611aa681611a80565b92915050565b600060208284031215611ac257611ac161186b565b5b6000611ad084828501611a97565b91505092915050565b60008060408385031215611af057611aef61186b565b5b6000611afe85828601611a97565b9250506020611b0f85828601611974565b9150509250929050565b6000819050919050565b6000611b3e611b39611b348461192b565b611b19565b61192b565b9050919050565b6000611b5082611b23565b9050919050565b6000611b6282611b45565b9050919050565b611b7281611b57565b82525050565b6000602082019050611b8d6000830184611b69565b92915050565b6000602082019050611ba86000830184611a1e565b92915050565b6000819050919050565b611bc181611bae565b82525050565b6000602082019050611bdc6000830184611bb8565b92915050565b611beb816119ea565b8114611bf657600080fd5b50565b600081359050611c0881611be2565b92915050565b600060208284031215611c2457611c2361186b565b5b6000611c3284828501611bf9565b91505092915050565b600082825260208201905092915050565b7f4e6f2061637469766520706f6c69637900000000000000000000000000000000600082015250565b6000611c82601083611c3b565b9150611c8d82611c4c565b602082019050919050565b60006020820190508181036000830152611cb181611c75565b9050919050565b7f5061796f757420616c7265616479206973737565640000000000000000000000600082015250565b6000611cee601583611c3b565b9150611cf982611cb8565b602082019050919050565b60006020820190508181036000830152611d1d81611ce1565b9050919050565b7f466c6f6f64206c6576656c2062656c6f77207468726573686f6c640000000000600082015250565b6000611d5a601b83611c3b565b9150611d6582611d24565b602082019050919050565b60006020820190508181036000830152611d8981611d4d565b9050919050565b600081905092915050565b50565b6000611dab600083611d90565b9150611db682611d9b565b600082019050919050565b6000611dcc82611d9e565b9150819050919050565b7f5061796f7574206661696c656400000000000000000000000000000000000000600082015250565b6000611e0c600d83611c3b565b9150611e1782611dd6565b602082019050919050565b60006020820190508181036000830152611e3b81611dff565b9050919050565b7f4e487b7100000000000000000000000000000000000000000000000000000000600052601260045260246000fd5b6000611e7c826119ea565b9150611e87836119ea565b925082611e9757611e96611e42565b5b828204905092915050565b7f4e6f2066756e647320746f207769746864726177000000000000000000000000600082015250565b6000611ed8601483611c3b565b9150611ee382611ea2565b602082019050919050565b60006020820190508181036000830152611f0781611ecb565b9050919050565b7f5769746864726177616c206661696c6564000000000000000000000000000000600082015250565b6000611f44601183611c3b565b9150611f4f82611f0e565b602082019050919050565b60006020820190508181036000830152611f7381611f37565b9050919050565b7f496e76616c6964206f7261636c65206164647265737300000000000000000000600082015250565b6000611fb0601683611c3b565b9150611fbb82611f7a565b602082019050919050565b60006020820190508181036000830152611fdf81611fa3565b9050919050565b600069ffffffffffffffffffff82169050919050565b61200581611fe6565b811461201057600080fd5b50565b60008151905061202281611ffc565b92915050565b61203181611bae565b811461203c57600080fd5b50565b60008151905061204e81612028565b92915050565b60008151905061206381611be2565b92915050565b600080600080600060a086880312156120855761208461186b565b5b600061209388828901612013565b95505060206120a48882890161203f565b94505060406120b588828901612054565b93505060606120c688828901612054565b92505060806120d788828901612013565b9150509295509295909350565b7f556e617574686f72697a65643a204e6f74206f776e6572000000000000000000600082015250565b600061211a601783611c3b565b9150612125826120e4565b602082019050919050565b600060208201905081810360008301526121498161210d565b9050919050565b7f5468726573686f6c64206d75737420626520706f736974697665000000000000600082015250565b6000612186601a83611c3b565b915061219182612150565b602082019050919050565b600060208201905081810360008301526121b581612179565b9050919050565b7f5468726573686f6c6420746f6f20686967680000000000000000000000000000600082015250565b60006121f2601283611c3b565b91506121fd826121bc565b602082019050919050565b60006020820190508181036000830152612221816121e5565b9050919050565b600060408201905061223d60008301856119f4565b61224a60208301846119f4565b9392505050565b7f5072656d69756d206d7573742062652067726561746572207468616e20300000600082015250565b6000612287601e83611c3b565b915061229282612251565b602082019050919050565b600060208201905081810360008301526122b68161227a565b9050919050565b7f436f766572616765206d7573742062652067726561746572207468616e203000600082015250565b60006122f3601f83611c3b565b91506122fe826122bd565b602082019050919050565b60006020820190508181036000830152612322816122e6565b9050919050565b7f506f6c69637920616c7265616479206163746976650000000000000000000000600082015250565b600061235f601583611c3b565b915061236a82612329565b602082019050919050565b6000602082019050818103600083015261238e81612352565b9050919050565b7f496e73756666696369656e74207072656d69756d000000000000000000000000600082015250565b60006123cb601483611c3b565b91506123d682612395565b602082019050919050565b600060208201905081810360008301526123fa816123be565b9050919050565b7f496e76616c6964206e6577206f776e6572000000000000000000000000000000600082015250565b6000612437601183611c3b565b915061244282612401565b602082019050919050565b600060208201905081810360008301526124668161242a565b9050919050565b60006040820190506124826000830185611a1e565b61248f60208301846119c0565b939250505056fea26469706673582212202920a95befa592ed112918fcaf19942dabeddedfbb3802d94a1742d11d3d9ad964736f6c634300081a0033",
  "linkReferences": {},
  "deployedLinkReferences": {}
}