{
  "_format": "hh-sol-artifact-1",
  "contractName": "Paramify",
  "sourceName": "contracts/Paramify.sol",
  "abi": [
    {
      "inputs": [
        {
          "internalType": "address",
          "name": "_priceFeedAddress",
          "type": "address"
        }
      ],
      "stateMutability": "nonpayable",
      "type": "constructor"
    },
    {
      "inputs": [],
      "name": "AccessControlBadConfirmation",
      "type": "error"
    },
    {
      "inputs": [
        {
          "internalType": "address",
          "name": "account",
          "type": "address"
        },
        {
          "internalType": "bytes32",
          "name": "neededRole",
          "type": "bytes32"
        }
      ],
      "name": "AccessControlUnauthorizedAccount",
      "type": "error"
    },
    {
      "inputs": [
        {
          "internalType": "address",
          "name": "sender",
          "type": "address"
        },
        {
          "internalType": "uint256",
          "name": "tokenId",
          "type": "uint256"
        },
        {
          "internalType": "address",
          "name": "owner",
          "type": "address"
        }
      ],
      "name": "ERC721IncorrectOwner",
      "type": "error"
    },
    {
      "inputs": [
        {
          "internalType": "address",
          "name": "operator",
          "type": "address"
        },
        {
          "internalType": "uint256",
          "name": "tokenId",
          "type": "uint256"
        }
      ],
      "name": "ERC721InsufficientApproval",
      "type": "error"
    },
    {
      "inputs": [
        {
          "internalType": "address",
          "name": "approver",
          "type": "address"
        }
      ],
      "name": "ERC721InvalidApprover",
      "type": "error"
    },
    {
      "inputs": [
        {
          "internalType": "address",
          "name": "operator",
          "type": "address"
        }
      ],
      "name": "ERC721InvalidOperator",
      "type": "error"
    },
    {
      "inputs": [
        {
          "internalType": "address",
          "name": "owner",
          "type": "address"
        }
      ],
      "name": "ERC721InvalidOwner",
      "type": "error"
    },
    {
      "inputs": [
        {
          "internalType": "address",
          "name": "receiver",
          "type": "address"
        }
      ],
      "name": "ERC721InvalidReceiver",
      "type": "error"
    },
    {
      "inputs": [
        {
          "internalType": "address",
          "name": "sender",
          "type": "address"
        }
      ],
      "name": "ERC721InvalidSender",
      "type": "error"
    },
    {
      "inputs": [
        {
          "internalType": "uint256",
          "name": "tokenId",
          "type": "uint256"
        }
      ],
      "name": "ERC721NonexistentToken",
      "type": "error"
    },
    {
      "inputs": [],
      "name": "PolicyNFTNotTransferable",
      "type": "error"
    },
    {
      "inputs": [
        {
          "internalType": "uint256",
          "name": "value",
          "type": "uint256"
        },
        {
          "internalType": "uint256",
          "name": "length",
          "type": "uint256"
        }
      ],
      "name": "StringsInsufficientHexLength",
      "type": "error"
    },
    {
      "anonymous": false,
      "inputs": [
        {
          "indexed": true,
          "internalType": "address",
          "name": "owner",
          "type": "address"
        },
        {
          "indexed": true,
          "internalType": "address",
          "name": "approved",
          "type": "address"
        },
        {
          "indexed": true,
          "internalType": "uint256",
          "name": "tokenId",
          "type": "uint256"
        }
      ],
      "name": "Approval",
      "type": "event"
    },
    {
      "anonymous": false,
      "inputs": [
        {
          "indexed": true,
          "internalType": "address",
          "name": "owner",
          "type": "address"
        },
        {
          "indexed": true,
          "internalType": "address",
          "name": "operator",
          "type": "address"
        },
        {
          "indexed": false,
          "internalType": "bool",
          "name": "approved",
          "type": "bool"
        }
      ],
      "name": "ApprovalForAll",
      "type": "event"
    },
    {
      "anonymous": false,
      "inputs": [
        {
          "indexed": true,
          "internalType": "address",
          "name": "customer",
          "type": "address"
        },
        {
          "indexed": false,
          "internalType": "uint256",
          "name": "premium",
          "type": "uint256"
        },
        {
          "indexed": false,
          "internalType": "uint256",
          "name": "coverage",
          "type": "uint256"
        },
        {
          "indexed": false,
          "internalType": "uint256",
          "name": "policyId",
          "type": "uint256"
        }
      ],
      "name": "InsurancePurchased",
      "type": "event"
    },
    {
      "anonymous": false,
      "inputs": [
        {
          "indexed": true,
          "internalType": "address",
          "name": "oldOracle",
          "type": "address"
        },
        {
          "indexed": true,
          "internalType": "address",
          "name": "newOracle",
          "type": "address"
        }
      ],
      "name": "OracleAddressUpdated",
      "type": "event"
    },
    {
      "anonymous": false,
      "inputs": [
        {
          "indexed": true,
          "internalType": "address",
          "name": "customer",
          "type": "address"
        },
        {
          "indexed": false,
          "internalType": "uint256",
          "name": "amount",
          "type": "uint256"
        },
        {
          "indexed": false,
          "internalType": "uint256",
          "name": "policyId",
          "type": "uint256"
        }
      ],
      "name": "PayoutTriggered",
      "type": "event"
    },
    {
      "anonymous": false,
      "inputs": [
        {
          "indexed": true,
          "internalType": "uint256",
          "name": "policyId",
          "type": "uint256"
        },
        {
          "indexed": true,
          "internalType": "address",
          "name": "policyholder",
          "type": "address"
        },
        {
          "indexed": false,
          "internalType": "uint256",
          "name": "coverage",
          "type": "uint256"
        },
        {
          "indexed": false,
          "internalType": "uint256",
          "name": "premium",
          "type": "uint256"
        }
      ],
      "name": "PolicyCreated",
      "type": "event"
    },
    {
      "anonymous": false,
      "inputs": [
        {
          "indexed": true,
          "internalType": "uint256",
          "name": "policyId",
          "type": "uint256"
        },
        {
          "indexed": false,
          "internalType": "bool",
          "name": "active",
          "type": "bool"
        },
        {
          "indexed": false,
          "internalType": "bool",
          "name": "paidOut",
          "type": "bool"
        }
      ],
      "name": "PolicyStatusChanged",
      "type": "event"
    },
    {
      "anonymous": false,
      "inputs": [
        {
          "indexed": true,
          "internalType": "bytes32",
          "name": "role",
          "type": "bytes32"
        },
        {
          "indexed": true,
          "internalType": "bytes32",
          "name": "previousAdminRole",
          "type": "bytes32"
        },
        {
          "indexed": true,
          "internalType": "bytes32",
          "name": "newAdminRole",
          "type": "bytes32"
        }
      ],
      "name": "RoleAdminChanged",
      "type": "event"
    },
    {
      "anonymous": false,
      "inputs": [
        {
          "indexed": true,
          "internalType": "bytes32",
          "name": "role",
          "type": "bytes32"
        },
        {
          "indexed": true,
          "internalType": "address",
          "name": "account",
          "type": "address"
        },
        {
          "indexed": true,
          "internalType": "address",
          "name": "sender",
          "type": "address"
        }
      ],
      "name": "RoleGranted",
      "type": "event"
    },
    {
      "anonymous": false,
      "inputs": [
        {
          "indexed": true,
          "internalType": "bytes32",
          "name": "role",
          "type": "bytes32"
        },
        {
          "indexed": true,
          "internalType": "address",
          "name": "account",
          "type": "address"
        },
        {
          "indexed": true,
          "internalType": "address",
          "name": "sender",
          "type": "address"
        }
      ],
      "name": "RoleRevoked",
      "type": "event"
    },
    {
      "anonymous": false,
      "inputs": [
        {
          "indexed": false,
          "internalType": "uint256",
          "name": "oldThreshold",
          "type": "uint256"
        },
        {
          "indexed": false,
          "internalType": "uint256",
          "name": "newThreshold",
          "type": "uint256"
        }
      ],
      "name": "ThresholdChanged",
      "type": "event"
    },
    {
      "anonymous": false,
      "inputs": [
        {
          "indexed": true,
          "internalType": "address",
          "name": "from",
          "type": "address"
        },
        {
          "indexed": true,
          "internalType": "address",
          "name": "to",
          "type": "address"
        },
        {
          "indexed": true,
          "internalType": "uint256",
          "name": "tokenId",
          "type": "uint256"
        }
      ],
      "name": "Transfer",
      "type": "event"
    },
    {
      "inputs": [],
      "name": "DEFAULT_ADMIN_ROLE",
      "outputs": [
        {
          "internalType": "bytes32",
          "name": "",
          "type": "bytes32"
        }
      ],
      "stateMutability": "view",
      "type": "function"
    },
    {
      "inputs": [],
      "name": "INSURANCE_ADMIN_ROLE",
      "outputs": [
        {
          "internalType": "bytes32",
          "name": "",
          "type": "bytes32"
        }
      ],
      "stateMutability": "view",
      "type": "function"
    },
    {
      "inputs": [],
      "name": "ORACLE_UPDATER_ROLE",
      "outputs": [
        {
          "internalType": "bytes32",
          "name": "",
          "type": "bytes32"
        }
      ],
      "stateMutability": "view",
      "type": "function"
    },
    {
      "inputs": [
        {
          "internalType": "address",
          "name": "",
          "type": "address"
        }
      ],
      "name": "activePolicyId",
      "outputs": [
        {
          "internalType": "uint256",
          "name": "",
          "type": "uint256"
        }
      ],
      "stateMutability": "view",
      "type": "function"
    },
    {
      "inputs": [
        {
          "internalType": "address",
          "name": "to",
          "type": "address"
        },
        {
          "internalType": "uint256",
          "name": "tokenId",
          "type": "uint256"
        }
      ],
      "name": "approve",
      "outputs": [],
      "stateMutability": "nonpayable",
      "type": "function"
    },
    {
      "inputs": [
        {
          "internalType": "address",
          "name": "owner",
          "type": "address"
        }
      ],
      "name": "balanceOf",
      "outputs": [
        {
          "internalType": "uint256",
          "name": "",
          "type": "uint256"
        }
      ],
      "stateMutability": "view",
      "type": "function"
    },
    {
      "inputs": [
        {
          "internalType": "uint256",
          "name": "_coverage",
          "type": "uint256"
        }
      ],
      "name": "buyInsurance",
      "outputs": [],
      "stateMutability": "payable",
      "type": "function"
    },
    {
      "inputs": [],
      "name": "floodThreshold",
      "outputs": [
        {
          "internalType": "uint256",
          "name": "",
          "type": "uint256"
        }
      ],
      "stateMutability": "view",
      "type": "function"
    },
    {
      "inputs": [],
      "name": "getAllPolicies",
      "outputs": [
        {
          "components": [
            {
              "internalType": "uint256",
              "name": "policyId",
              "type": "uint256"
            },
            {
              "internalType": "address",
              "name": "policyholder",
              "type": "address"
            },
            {
              "internalType": "uint256",
              "name": "premium",
              "type": "uint256"
            },
            {
              "internalType": "uint256",
              "name": "coverage",
              "type": "uint256"
            },
            {
              "internalType": "uint256",
              "name": "purchaseTime",
              "type": "uint256"
            },
            {
              "internalType": "bool",
              "name": "active",
              "type": "bool"
            },
            {
              "internalType": "bool",
              "name": "paidOut",
              "type": "bool"
            }
          ],
          "internalType": "struct Paramify.Policy[]",
          "name": "",
          "type": "tuple[]"
        }
      ],
      "stateMutability": "view",
      "type": "function"
    },
    {
      "inputs": [
        {
          "internalType": "uint256",
          "name": "tokenId",
          "type": "uint256"
        }
      ],
      "name": "getApproved",
      "outputs": [
        {
          "internalType": "address",
          "name": "",
          "type": "address"
        }
      ],
      "stateMutability": "view",
      "type": "function"
    },
    {
      "inputs": [],
      "name": "getContractBalance",
      "outputs": [
        {
          "internalType": "uint256",
          "name": "",
          "type": "uint256"
        }
      ],
      "stateMutability": "view",
      "type": "function"
    },
    {
      "inputs": [],
      "name": "getCurrentThreshold",
      "outputs": [
        {
          "internalType": "uint256",
          "name": "",
          "type": "uint256"
        }
      ],
      "stateMutability": "view",
      "type": "function"
    },
    {
      "inputs": [],
      "name": "getLatestPrice",
      "outputs": [
        {
          "internalType": "int256",
          "name": "",
          "type": "int256"
        }
      ],
      "stateMutability": "view",
      "type": "function"
    },
    {
      "inputs": [],
      "name": "getPolicyStats",
      "outputs": [
        {
          "internalType": "uint256",
          "name": "total",
          "type": "uint256"
        },
        {
          "internalType": "uint256",
          "name": "active",
          "type": "uint256"
        },
        {
          "internalType": "uint256",
          "name": "paidOut",
          "type": "uint256"
        }
      ],
      "stateMutability": "view",
      "type": "function"
    },
    {
      "inputs": [
        {
          "internalType": "bytes32",
          "name": "role",
          "type": "bytes32"
        }
      ],
      "name": "getRoleAdmin",
      "outputs": [
        {
          "internalType": "bytes32",
          "name": "",
          "type": "bytes32"
        }
      ],
      "stateMutability": "view",
      "type": "function"
    },
    {
      "inputs": [],
      "name": "getThresholdInFeet",
      "outputs": [
        {
          "internalType": "uint256",
          "name": "",
          "type": "uint256"
        }
      ],
      "stateMutability": "view",
      "type": "function"
    },
    {
      "inputs": [
        {
          "internalType": "bytes32",
          "name": "role",
          "type": "bytes32"
        },
        {
          "internalType": "address",
          "name": "account",
          "type": "address"
        }
      ],
      "name": "grantRole",
      "outputs": [],
      "stateMutability": "nonpayable",
      "type": "function"
    },
    {
      "inputs": [
        {
          "internalType": "bytes32",
          "name": "role",
          "type": "bytes32"
        },
        {
          "internalType": "address",
          "name": "account",
          "type": "address"
        }
      ],
      "name": "hasRole",
      "outputs": [
        {
          "internalType": "bool",
          "name": "",
          "type": "bool"
        }
      ],
      "stateMutability": "view",
      "type": "function"
    },
    {
      "inputs": [],
      "name": "insuranceAmount",
      "outputs": [
        {
          "internalType": "uint256",
          "name": "",
          "type": "uint256"
        }
      ],
      "stateMutability": "view",
      "type": "function"
    },
    {
      "inputs": [
        {
          "internalType": "address",
          "name": "owner",
          "type": "address"
        },
        {
          "internalType": "address",
          "name": "operator",
          "type": "address"
        }
      ],
      "name": "isApprovedForAll",
      "outputs": [
        {
          "internalType": "bool",
          "name": "",
          "type": "bool"
        }
      ],
      "stateMutability": "view",
      "type": "function"
    },
    {
      "inputs": [],
      "name": "isInitialized",
      "outputs": [
        {
          "internalType": "bool",
          "name": "",
          "type": "bool"
        }
      ],
      "stateMutability": "view",
      "type": "function"
    },
    {
      "inputs": [
        {
          "internalType": "address",
          "name": "_customer",
          "type": "address"
        }
      ],
      "name": "isPayoutEligible",
      "outputs": [
        {
          "internalType": "bool",
          "name": "",
          "type": "bool"
        }
      ],
      "stateMutability": "view",
      "type": "function"
    },
    {
      "inputs": [],
      "name": "name",
      "outputs": [
        {
          "internalType": "string",
          "name": "",
          "type": "string"
        }
      ],
      "stateMutability": "view",
      "type": "function"
    },
    {
      "inputs": [],
      "name": "owner",
      "outputs": [
        {
          "internalType": "address",
          "name": "",
          "type": "address"
        }
      ],
      "stateMutability": "view",
      "type": "function"
    },
    {
      "inputs": [
        {
          "internalType": "uint256",
          "name": "tokenId",
          "type": "uint256"
        }
      ],
      "name": "ownerOf",
      "outputs": [
        {
          "internalType": "address",
          "name": "",
          "type": "address"
        }
      ],
      "stateMutability": "view",
      "type": "function"
    },
    {
      "inputs": [
        {
          "internalType": "uint256",
          "name": "",
          "type": "uint256"
        }
      ],
      "name": "policies",
      "outputs": [
        {
          "internalType": "uint256",
          "name": "policyId",
          "type": "uint256"
        },
        {
          "internalType": "address",
          "name": "policyholder",
          "type": "address"
        },
        {
          "internalType": "uint256",
          "name": "premium",
          "type": "uint256"
        },
        {
          "internalType": "uint256",
          "name": "coverage",
          "type": "uint256"
        },
        {
          "internalType": "uint256",
          "name": "purchaseTime",
          "type": "uint256"
        },
        {
          "internalType": "bool",
          "name": "active",
          "type": "bool"
        },
        {
          "internalType": "bool",
          "name": "paidOut",
          "type": "bool"
        }
      ],
      "stateMutability": "view",
      "type": "function"
    },
    {
      "inputs": [],
      "name": "priceFeed",
      "outputs": [
        {
          "internalType": "contract AggregatorV3Interface",
          "name": "",
          "type": "address"
        }
      ],
      "stateMutability": "view",
      "type": "function"
    },
    {
      "inputs": [
        {
          "internalType": "bytes32",
          "name": "role",
          "type": "bytes32"
        },
        {
          "internalType": "address",
          "name": "callerConfirmation",
          "type": "address"
        }
      ],
      "name": "renounceRole",
      "outputs": [],
      "stateMutability": "nonpayable",
      "type": "function"
    },
    {
      "inputs": [
        {
          "internalType": "bytes32",
          "name": "role",
          "type": "bytes32"
        },
        {
          "internalType": "address",
          "name": "account",
          "type": "address"
        }
      ],
      "name": "revokeRole",
      "outputs": [],
      "stateMutability": "nonpayable",
      "type": "function"
    },
    {
      "inputs": [
        {
          "internalType": "address",
          "name": "from",
          "type": "address"
        },
        {
          "internalType": "address",
          "name": "to",
          "type": "address"
        },
        {
          "internalType": "uint256",
          "name": "tokenId",
          "type": "uint256"
        }
      ],
      "name": "safeTransferFrom",
      "outputs": [],
      "stateMutability": "nonpayable",
      "type": "function"
    },
    {
      "inputs": [
        {
          "internalType": "address",
          "name": "from",
          "type": "address"
        },
        {
          "internalType": "address",
          "name": "to",
          "type": "address"
        },
        {
          "internalType": "uint256",
          "name": "tokenId",
          "type": "uint256"
        },
        {
          "internalType": "bytes",
          "name": "data",
          "type": "bytes"
        }
      ],
      "name": "safeTransferFrom",
      "outputs": [],
      "stateMutability": "nonpayable",
      "type": "function"
    },
    {
      "inputs": [
        {
          "internalType": "address",
          "name": "operator",
          "type": "address"
        },
        {
          "internalType": "bool",
          "name": "approved",
          "type": "bool"
        }
      ],
      "name": "setApprovalForAll",
      "outputs": [],
      "stateMutability": "nonpayable",
      "type": "function"
    },
    {
      "inputs": [
        {
          "internalType": "uint256",
          "name": "_amount",
          "type": "uint256"
        }
      ],
      "name": "setInsuranceAmount",
      "outputs": [],
      "stateMutability": "nonpayable",
      "type": "function"
    },
    {
      "inputs": [
        {
          "internalType": "address",
          "name": "_oracleAddress",
          "type": "address"
        }
      ],
      "name": "setOracleAddress",
      "outputs": [],
      "stateMutability": "nonpayable",
      "type": "function"
    },
    {
      "inputs": [
        {
          "internalType": "uint256",
          "name": "_newThreshold",
          "type": "uint256"
        }
      ],
      "name": "setThreshold",
      "outputs": [],
      "stateMutability": "nonpayable",
      "type": "function"
    },
    {
      "inputs": [
        {
          "internalType": "bytes4",
          "name": "interfaceId",
          "type": "bytes4"
        }
      ],
      "name": "supportsInterface",
      "outputs": [
        {
          "internalType": "bool",
          "name": "",
          "type": "bool"
        }
      ],
      "stateMutability": "view",
      "type": "function"
    },
    {
      "inputs": [],
      "name": "symbol",
      "outputs": [
        {
          "internalType": "string",
          "name": "",
          "type": "string"
        }
      ],
      "stateMutability": "view",
      "type": "function"
    },
    {
      "inputs": [
        {
          "internalType": "uint256",
          "name": "tokenId",
          "type": "uint256"
        }
      ],
      "name": "tokenURI",
      "outputs": [
        {
          "internalType": "string",
          "name": "",
          "type": "string"
        }
      ],
      "stateMutability": "view",
      "type": "function"
    },
    {
      "inputs": [
        {
          "internalType": "address",
          "name": "from",
          "type": "address"
        },
        {
          "internalType": "address",
          "name": "to",
          "type": "address"
        },
        {
          "internalType": "uint256",
          "name": "tokenId",
          "type": "uint256"
        }
      ],
      "name": "transferFrom",
      "outputs": [],
      "stateMutability": "nonpayable",
      "type": "function"
    },
    {
      "inputs": [
        {
          "internalType": "address",
          "name": "newOwner",
          "type": "address"
        }
      ],
      "name": "transferOwnership",
      "outputs": [],
      "stateMutability": "nonpayable",
      "type": "function"
    },
    {
      "inputs": [],
      "name": "triggerPayout",
      "outputs": [],
      "stateMutability": "nonpayable",
      "type": "function"
    },
    {
      "inputs": [],
      "name": "withdraw",
      "outputs": [],
      "stateMutability": "nonpayable",
      "type": "function"
    },
    {
      "stateMutability": "payable",
      "type": "receive"
    }
  ],
  "bytecode": "0x60806040526501176592e000600b5534801561001a57600080fd5b506040516139b83803806139b883398101604081905261003991610202565b6040518060400160405280601681526020017f506172616d69667920496e737572616e6365204e46540000000000000000000081525060405180604001604052806005815260200164141253919560da1b815250816001908161009c91906102d1565b5060026100a982826102d1565b5050600c80546001600160a01b031916339081179091556100cd9150600090610156565b506100f87f9792fdc19ab98adfa72ab2fa98d342618c661e01c406979c105b31eda87f5e6f33610156565b506101237f89b7833be53af5649430c7ac49df0baab05039ffab1e3f75ae8a0942c324699a33610156565b50600880546001600160a01b0319166001600160a01b0392909216919091179055600a805460ff1916600117905561038f565b6000828152602081815260408083206001600160a01b038516845290915281205460ff166101f8576000838152602081815260408083206001600160a01b03861684529091529020805460ff191660011790556101b03390565b6001600160a01b0316826001600160a01b0316847f2f8788117e7eff1d82e926ec794901d17c78024a50270940304540a733656f0d60405160405180910390a45060016101fc565b5060005b92915050565b60006020828403121561021457600080fd5b81516001600160a01b038116811461022b57600080fd5b9392505050565b634e487b7160e01b600052604160045260246000fd5b600181811c9082168061025c57607f821691505b60208210810361027c57634e487b7160e01b600052602260045260246000fd5b50919050565b601f8211156102cc57806000526020600020601f840160051c810160208510156102a95750805b601f840160051c820191505b818110156102c957600081556001016102b5565b50505b505050565b81516001600160401b038111156102ea576102ea610232565b6102fe816102f88454610248565b84610282565b6020601f821160018114610332576000831561031a5750848201515b600019600385901b1c1916600184901b1784556102c9565b600084815260208120601f198516915b828110156103625787850151825560209485019460019092019101610342565b50848210156103805786840151600019600387901b60f8161c191681555b50505050600190811b01905550565b61361a8061039e6000396000f3fe6080604052600436106102555760003560e01c8063741bef1a11610139578063a22cb465116100b6578063d3e894831161007a578063d3e8948314610700578063d547741f146107a7578063e2840975146107c7578063e985e9c5146107dd578063ee1ed6b7146107fd578063f2fde38b1461081d57600080fd5b8063a22cb46514610677578063a74f996514610697578063a86a658c146106ad578063b88d4fde146106c0578063c87b56dd146106e057600080fd5b806391d14854116100fd57806391d14854146105dd57806395d89b41146105fd578063960bfe041461061257806396ca686d14610632578063a217fddf1461066257600080fd5b8063741bef1a14610527578063741fe126146105475780637b0d43ae1461057b5780638da5cb5b146105a85780638e15f473146105c857600080fd5b80632caecd3d116101d257806342842e0e1161019657806342842e0e14610472578063457e5521146104925780634c69c00f146104b45780636352211e146104d45780636f9fb98a146104f457806370a082311461050757600080fd5b80632caecd3d146103ee5780632f2ff15d1461040357806336568abe14610423578063392e53cd146104435780633ccfd60b1461045d57600080fd5b806315a0def11161021957806315a0def1146103275780631732d330146103475780631b71bf6e1461038957806323b872dd1461039e578063248a9ca3146103be57600080fd5b806301ffc9a71461026157806305a95f041461029657806306fdde03146102ad578063081812fc146102cf578063095ea7b31461030757600080fd5b3661025c57005b600080fd5b34801561026d57600080fd5b5061028161027c3660046128cb565b61083d565b60405190151581526020015b60405180910390f35b3480156102a257600080fd5b506102ab61084e565b005b3480156102b957600080fd5b506102c2610ac8565b60405161028d919061293f565b3480156102db57600080fd5b506102ef6102ea366004612952565b610b5a565b6040516001600160a01b03909116815260200161028d565b34801561031357600080fd5b506102ab610322366004612987565b610b83565b34801561033357600080fd5b506102816103423660046129b1565b610b92565b34801561035357600080fd5b5061037b7f9792fdc19ab98adfa72ab2fa98d342618c661e01c406979c105b31eda87f5e6f81565b60405190815260200161028d565b34801561039557600080fd5b50600b5461037b565b3480156103aa57600080fd5b506102ab6103b93660046129cc565b610c62565b3480156103ca57600080fd5b5061037b6103d9366004612952565b60009081526020819052604090206001015490565b3480156103fa57600080fd5b5061037b610ced565b34801561040f57600080fd5b506102ab61041e366004612a09565b610d07565b34801561042f57600080fd5b506102ab61043e366004612a09565b610d2c565b34801561044f57600080fd5b50600a546102819060ff1681565b34801561046957600080fd5b506102ab610d64565b34801561047e57600080fd5b506102ab61048d3660046129cc565b610e40565b34801561049e57600080fd5b506104a7610e5b565b60405161028d9190612a35565b3480156104c057600080fd5b506102ab6104cf3660046129b1565b610fba565b3480156104e057600080fd5b506102ef6104ef366004612952565b611067565b34801561050057600080fd5b504761037b565b34801561051357600080fd5b5061037b6105223660046129b1565b611072565b34801561053357600080fd5b506008546102ef906001600160a01b031681565b34801561055357600080fd5b5061037b7f89b7833be53af5649430c7ac49df0baab05039ffab1e3f75ae8a0942c324699a81565b34801561058757600080fd5b5061037b6105963660046129b1565b600e6020526000908152604090205481565b3480156105b457600080fd5b50600c546102ef906001600160a01b031681565b3480156105d457600080fd5b5061037b6110ba565b3480156105e957600080fd5b506102816105f8366004612a09565b61113f565b34801561060957600080fd5b506102c2611168565b34801561061e57600080fd5b506102ab61062d366004612952565b611177565b34801561063e57600080fd5b506106476112ab565b6040805193845260208401929092529082015260600161028d565b34801561066e57600080fd5b5061037b600081565b34801561068357600080fd5b506102ab610692366004612ac8565b611328565b3480156106a357600080fd5b5061037b60095481565b6102ab6106bb366004612952565b611333565b3480156106cc57600080fd5b506102ab6106db366004612b1a565b6115ff565b3480156106ec57600080fd5b506102c26106fb366004612952565b611616565b34801561070c57600080fd5b5061076661071b366004612952565b600d6020526000908152604090208054600182015460028301546003840154600485015460059095015493946001600160a01b03909316939192909160ff8082169161010090041687565b604080519788526001600160a01b0390961660208801529486019390935260608501919091526080840152151560a0830152151560c082015260e00161028d565b3480156107b357600080fd5b506102ab6107c2366004612a09565b611723565b3480156107d357600080fd5b5061037b600b5481565b3480156107e957600080fd5b506102816107f8366004612bfe565b611748565b34801561080957600080fd5b506102ab610818366004612952565b611776565b34801561082957600080fd5b506102ab6108383660046129b1565b6117a6565b600061084882611866565b92915050565b336000908152600e6020526040812054908190036108a55760405162461bcd60e51b815260206004820152600f60248201526e139bc81c1bdb1a58de48199bdd5b99608a1b60448201526064015b60405180910390fd5b6000818152600d60205260409020600581015460ff166108fa5760405162461bcd60e51b815260206004820152601060248201526f4e6f2061637469766520706f6c69637960801b604482015260640161089c565b6005810154610100900460ff161561094c5760405162461bcd60e51b815260206004820152601560248201527414185e5bdd5d08185b1c9958591e481a5cdcdd5959605a1b604482015260640161089c565b60006109566110ba565b9050600b548110156109aa5760405162461bcd60e51b815260206004820152601b60248201527f466c6f6f64206c6576656c2062656c6f77207468726573686f6c640000000000604482015260640161089c565b60058201805461ffff191661010017905560408051600081526001602082015284917f5d919b102099eb4d754cf533f703e6c81882f02551aea67f2fdd7c0c43336a21910160405180910390a2600382015460405160009133918381818185875af1925050503d8060008114610a3c576040519150601f19603f3d011682016040523d82523d6000602084013e610a41565b606091505b5050905080610a825760405162461bcd60e51b815260206004820152600d60248201526c14185e5bdd5d0819985a5b1959609a1b604482015260640161089c565b6003830154604080519182526020820186905233917f5306cd5c1fd578475b0797de95f693e723b7bbf516236b27419b74bf999ef028910160405180910390a250505050565b606060018054610ad790612c28565b80601f0160208091040260200160405190810160405280929190818152602001828054610b0390612c28565b8015610b505780601f10610b2557610100808354040283529160200191610b50565b820191906000526020600020905b815481529060010190602001808311610b3357829003601f168201915b5050505050905090565b6000610b65826118a6565b506000828152600560205260409020546001600160a01b0316610848565b610b8e8282336118df565b5050565b6001600160a01b0381166000908152600e6020526040812054808203610bbb5750600092915050565b6000818152600d6020908152604091829020825160e0810184528154815260018201546001600160a01b031692810192909252600281015492820192909252600382015460608201526004820154608082015260059091015460ff80821615801560a085015261010090920416151560c083015280610c3b57508060c001515b15610c4a575060009392505050565b6000610c546110ba565b600b54111595945050505050565b6001600160a01b038216610c8c57604051633250574960e11b81526000600482015260240161089c565b6000610c998383336118ec565b9050836001600160a01b0316816001600160a01b031614610ce7576040516364283d7b60e01b81526001600160a01b038086166004830152602482018490528216604482015260640161089c565b50505050565b600064174876e800600b54610d029190612c78565b905090565b600082815260208190526040902060010154610d2281611937565b610ce78383611944565b6001600160a01b0381163314610d555760405163334bd91960e11b815260040160405180910390fd5b610d5f82826119d6565b505050565b6000610d6f81611937565b4780610db45760405162461bcd60e51b81526020600482015260146024820152734e6f2066756e647320746f20776974686472617760601b604482015260640161089c565b604051600090339083908381818185875af1925050503d8060008114610df6576040519150601f19603f3d011682016040523d82523d6000602084013e610dfb565b606091505b5050905080610d5f5760405162461bcd60e51b815260206004820152601160248201527015da5d1a191c985dd85b0819985a5b1959607a1b604482015260640161089c565b610d5f838383604051806020016040528060008152506115ff565b60075460609060008167ffffffffffffffff811115610e7c57610e7c612b04565b604051908082528060200260200182016040528015610efa57816020015b610ee76040518060e001604052806000815260200160006001600160a01b031681526020016000815260200160008152602001600081526020016000151581526020016000151581525090565b815260200190600190039081610e9a5790505b50905060015b828111610fb3576000818152600d6020908152604091829020825160e081018452815481526001808301546001600160a01b03169382019390935260028201549381019390935260038101546060840152600481015460808401526005015460ff808216151560a085015261010090910416151560c08301528390610f859084612c9a565b81518110610f9557610f95612cad565b60200260200101819052508080610fab90612cc3565b915050610f00565b5092915050565b6000610fc581611937565b6001600160a01b0382166110145760405162461bcd60e51b8152602060048201526016602482015275496e76616c6964206f7261636c65206164647265737360501b604482015260640161089c565b600880546001600160a01b038481166001600160a01b0319831681179093556040519116919082907fd3afd1676752459d3aa8b6f73633fac8efd724610da9c4cd8d8e4fa1631841fb90600090a3505050565b6000610848826118a6565b60006001600160a01b03821661109e576040516322718ad960e21b81526000600482015260240161089c565b506001600160a01b031660009081526004602052604090205490565b600080600860009054906101000a90046001600160a01b03166001600160a01b031663feaf968c6040518163ffffffff1660e01b815260040160a060405180830381865afa158015611110573d6000803e3d6000fd5b505050506040513d601f19601f820116820180604052508101906111349190612cf6565b509195945050505050565b6000918252602082815260408084206001600160a01b0393909316845291905290205460ff1690565b606060028054610ad790612c28565b600c546001600160a01b031633146111cb5760405162461bcd60e51b81526020600482015260176024820152762ab730baba3437b934bd32b21d102737ba1037bbb732b960491b604482015260640161089c565b6000811161121b5760405162461bcd60e51b815260206004820152601a60248201527f5468726573686f6c64206d75737420626520706f736974697665000000000000604482015260640161089c565b6509184e72a0008111156112665760405162461bcd60e51b81526020600482015260126024820152710a8d0e4cae6d0ded8c840e8dede40d0d2ced60731b604482015260640161089c565b600b80549082905560408051828152602081018490527f3164947cf0f49f08dd0cd80e671535b1e11590d347c55dcaa97ba3c24a96b33a910160405180910390a15050565b60075460008060015b838111611322576000818152600d602052604090206005015460ff16156112e357826112df81612cc3565b9350505b6000818152600d6020526040902060050154610100900460ff1615611310578161130c81612cc3565b9250505b8061131a81612cc3565b9150506112b4565b50909192565b610b8e338383611a41565b600034116113835760405162461bcd60e51b815260206004820152601e60248201527f5072656d69756d206d7573742062652067726561746572207468616e20300000604482015260640161089c565b600081116113d35760405162461bcd60e51b815260206004820152601f60248201527f436f766572616765206d7573742062652067726561746572207468616e203000604482015260640161089c565b336000908152600e60205260409020548015611443576000818152600d602052604090206005015460ff16156114435760405162461bcd60e51b8152602060048201526015602482015274506f6c69637920616c72656164792061637469766560581b604482015260640161089c565b6000611450600a84612c78565b9050803410156114995760405162461bcd60e51b8152602060048201526014602482015273496e73756666696369656e74207072656d69756d60601b604482015260640161089c565b600780549060006114a983612cc3565b90915550506007546040805160e08101825282815233602080830182815234848601908152606085018a81524260808701908152600160a08801818152600060c08a018181528c8252600d89528b82209a518b559651928a0180546001600160a01b0319166001600160a01b03909416939093179092559351600289015591516003880155516004870155905160059095018054925161ffff1990931695151561ff001916959095176101009215159290920291909117909355818352600e905291902082905561157a9082611ae0565b604080513481526020810186905290810182905233907f7000580a6e3747e318650b055e5e30c38af1f23e69d9baf2c3bbc5fa993980629060600160405180910390a260408051858152346020820152339183917ff407f724dd5d2b7754fcbc405960f07c8da0a85e7f71948913fb2997e77bfc86910160405180910390a350505050565b61160a848484610c62565b610ce784848484611afa565b606060008211801561162a57506007548211155b61166d5760405162461bcd60e51b8152602060048201526014602482015273151bdad95b88191bd95cc81b9bdd08195e1a5cdd60621b604482015260640161089c565b6000828152600d60209081526040808320815160e0810183528154815260018201546001600160a01b03169381019390935260028101549183019190915260038101546060830152600481015460808301526005015460ff808216151560a084015261010090910416151560c0820152906116e88483611c23565b905060006116f7858484611d67565b90508060405160200161170a9190612d64565b6040516020818303038152906040529350505050919050565b60008281526020819052604090206001015461173e81611937565b610ce783836119d6565b6001600160a01b03918216600090815260066020908152604080832093909416825291909152205460ff1690565b7f89b7833be53af5649430c7ac49df0baab05039ffab1e3f75ae8a0942c324699a6117a081611937565b50600955565b600c546001600160a01b031633146117fa5760405162461bcd60e51b81526020600482015260176024820152762ab730baba3437b934bd32b21d102737ba1037bbb732b960491b604482015260640161089c565b6001600160a01b0381166118445760405162461bcd60e51b815260206004820152601160248201527024b73b30b634b2103732bb9037bbb732b960791b604482015260640161089c565b600c80546001600160a01b0319166001600160a01b0392909216919091179055565b60006001600160e01b031982166380ac58cd60e01b148061189757506001600160e01b03198216635b5e139f60e01b145b80610848575061084882611e31565b6000818152600360205260408120546001600160a01b03168061084857604051637e27328960e01b81526004810184905260240161089c565b610d5f8383836001611e66565b6000828152600360205260408120546001600160a01b03168015611923576040516309ef42fd60e31b815260040160405180910390fd5b61192e858585611f6c565b95945050505050565b6119418133612065565b50565b6000611950838361113f565b6119ce576000838152602081815260408083206001600160a01b03861684529091529020805460ff191660011790556119863390565b6001600160a01b0316826001600160a01b0316847f2f8788117e7eff1d82e926ec794901d17c78024a50270940304540a733656f0d60405160405180910390a4506001610848565b506000610848565b60006119e2838361113f565b156119ce576000838152602081815260408083206001600160a01b0386168085529252808320805460ff1916905551339286917ff6391f5c32d9c69d2a47ea670b442974b53935d1edc7fd64eb21e047a839171b9190a4506001610848565b6001600160a01b038216611a7357604051630b61174360e31b81526001600160a01b038316600482015260240161089c565b6001600160a01b03838116600081815260066020908152604080832094871680845294825291829020805460ff191686151590811790915591519182527f17307eab39ab6107e8899845ad3d59bd9653f200f220920489ca2b5937696c31910160405180910390a3505050565b610b8e82826040518060200160405280600081525061209e565b6001600160a01b0383163b15610ce757604051630a85bd0160e11b81526001600160a01b0384169063150b7a0290611b3c903390889087908790600401612da9565b6020604051808303816000875af1925050508015611b77575060408051601f3d908101601f19168201909252611b7491810190612de6565b60015b611be0573d808015611ba5576040519150601f19603f3d011682016040523d82523d6000602084013e611baa565b606091505b508051600003611bd857604051633250574960e11b81526001600160a01b038516600482015260240161089c565b805181602001fd5b6001600160e01b03198116630a85bd0160e11b14611c1c57604051633250574960e11b81526001600160a01b038516600482015260240161089c565b5050505050565b606060008260c00151611c83578260a00151611c5f5760405180604001604052806008815260200167496e61637469766560c01b815250611ca5565b6040518060400160405280600681526020016541637469766560d01b815250611ca5565b6040518060400160405280600881526020016714185a590813dd5d60c21b8152505b905060008360c00151611d05578360a00151611ce0576040518060400160405280600781526020016608d9598d0d0d0d60ca1b815250611d26565b604051806040016040528060078152602001662336363765656160c81b815250611d26565b604051806040016040528060078152602001662331306239383160c81b8152505b9050611d31856120b5565b81611d3c8685612148565b604051602001611d4e93929190612e03565b6040516020818303038152906040529250505092915050565b606060008360c00151611dc7578360a00151611da35760405180604001604052806008815260200167496e61637469766560c01b815250611de9565b6040518060400160405280600681526020016541637469766560d01b815250611de9565b6040518060400160405280600881526020016714185a590813dd5d60c21b8152505b905061192e611df7866120b5565b611e00856121bd565b611e0b88888661231c565b604051602001611e1d93929190612fe4565b6040516020818303038152906040526121bd565b60006001600160e01b03198216637965db0b60e01b148061084857506301ffc9a760e01b6001600160e01b0319831614610848565b8080611e7a57506001600160a01b03821615155b15611f3c576000611e8a846118a6565b90506001600160a01b03831615801590611eb65750826001600160a01b0316816001600160a01b031614155b8015611ec95750611ec78184611748565b155b15611ef25760405163a9fbf51f60e01b81526001600160a01b038416600482015260240161089c565b8115611f3a5783856001600160a01b0316826001600160a01b03167f8c5be1e5ebec7d5bd14f71427d1e84f3dd0314c0f7b2291e5b200ac8c7c3b92560405160405180910390a45b505b5050600090815260056020526040902080546001600160a01b0319166001600160a01b0392909216919091179055565b6000828152600360205260408120546001600160a01b0390811690831615611f9957611f998184866123a2565b6001600160a01b03811615611fd757611fb6600085600080611e66565b6001600160a01b038116600090815260046020526040902080546000190190555b6001600160a01b03851615612006576001600160a01b0385166000908152600460205260409020805460010190555b60008481526003602052604080822080546001600160a01b0319166001600160a01b0389811691821790925591518793918516917fddf252ad1be2c89b69c2b068fc378daa952ba7f163c4a11628f55a4df523b3ef91a4949350505050565b61206f828261113f565b610b8e5760405163e2517d3f60e01b81526001600160a01b03821660048201526024810183905260440161089c565b6120a88383612406565b610d5f6000848484611afa565b606060006120c28361246b565b600101905060008167ffffffffffffffff8111156120e2576120e2612b04565b6040519080825280601f01601f19166020018201604052801561210c576020820181803683370190505b5090508181016020015b600019016f181899199a1a9b1b9c1cb0b131b232b360811b600a86061a8153600a850494508461211657509392505050565b60608161216b670de0b6b3a764000085606001516121669190612c78565b6120b5565b612186670de0b6b3a764000086604001516121669190612c78565b6121938660200151612543565b6040516020016121a69493929190613113565b604051602081830303815290604052905092915050565b606081516000036121dc57505060408051602081019091526000815290565b6000604051806060016040528060408152602001613585604091399050600060038451600261220b9190613398565b6122159190612c78565b6122209060046133ab565b67ffffffffffffffff81111561223857612238612b04565b6040519080825280601f01601f191660200182016040528015612262576020820181803683370190505b50905060018201602082018586518701602081018051600082525b828410156122d8576003840193508351603f8160121c168701518653600186019550603f81600c1c168701518653600186019550603f8160061c168701518653600186019550603f811687015186535060018501945061227d565b90525050855160039006600181146122f7576002811461230a57611134565b603d6001830353603d6002830353611134565b603d6001830353509195945050505050565b6060612327846120b5565b82612343670de0b6b3a764000086606001516121669190612c78565b61235e670de0b6b3a764000087604001516121669190612c78565b61237687602001516001600160a01b031660146126d2565b60405160200161238a9594939291906133c2565b60405160208183030381529060405290509392505050565b6123ad838383612852565b610d5f576001600160a01b0383166123db57604051637e27328960e01b81526004810182905260240161089c565b60405163177e802f60e01b81526001600160a01b03831660048201526024810182905260440161089c565b6001600160a01b03821661243057604051633250574960e11b81526000600482015260240161089c565b600061243e838360006118ec565b90506001600160a01b03811615610d5f576040516339e3563760e11b81526000600482015260240161089c565b60008072184f03e93ff9f4daa797ed6e38ed64bf6a1f0160401b83106124aa5772184f03e93ff9f4daa797ed6e38ed64bf6a1f0160401b830492506040015b6d04ee2d6d415b85acef810000000083106124d6576d04ee2d6d415b85acef8100000000830492506020015b662386f26fc1000083106124f457662386f26fc10000830492506010015b6305f5e100831061250c576305f5e100830492506008015b612710831061252057612710830492506004015b60648310612532576064830492506002015b600a83106108485760010192915050565b6060600061255b836001600160a01b031660146126d2565b60408051600a808252818301909252919250829160009160208201818036833701905050905060005b60068110156125db5782818151811061259f5761259f612cad565b602001015160f81c60f81b8282815181106125bc576125bc612cad565b60200101906001600160f81b031916908160001a905350600101612584565b50601760f91b816006815181106125f4576125f4612cad565b60200101906001600160f81b031916908160001a905350601760f91b8160078151811061262357612623612cad565b60200101906001600160f81b031916908160001a9053508160288151811061264d5761264d612cad565b602001015160f81c60f81b8160088151811061266b5761266b612cad565b60200101906001600160f81b031916908160001a9053508160298151811061269557612695612cad565b602001015160f81c60f81b816009815181106126b3576126b3612cad565b60200101906001600160f81b031916908160001a905350949350505050565b60608260006126e28460026133ab565b6126ed906002613398565b67ffffffffffffffff81111561270557612705612b04565b6040519080825280601f01601f19166020018201604052801561272f576020820181803683370190505b509050600360fc1b8160008151811061274a5761274a612cad565b60200101906001600160f81b031916908160001a905350600f60fb1b8160018151811061277957612779612cad565b60200101906001600160f81b031916908160001a905350600061279d8560026133ab565b6127a8906001613398565b90505b6001811115612820576f181899199a1a9b1b9c1cb0b131b232b360811b83600f16601081106127dc576127dc612cad565b1a60f81b8282815181106127f2576127f2612cad565b60200101906001600160f81b031916908160001a90535060049290921c916128198161356d565b90506127ab565b50811561284a5760405163e22e27eb60e01b8152600481018690526024810185905260440161089c565b949350505050565b60006001600160a01b0383161580159061284a5750826001600160a01b0316846001600160a01b0316148061288c575061288c8484611748565b8061284a5750506000908152600560205260409020546001600160a01b03908116911614919050565b6001600160e01b03198116811461194157600080fd5b6000602082840312156128dd57600080fd5b81356128e8816128b5565b9392505050565b60005b8381101561290a5781810151838201526020016128f2565b50506000910152565b6000815180845261292b8160208601602086016128ef565b601f01601f19169290920160200192915050565b6020815260006128e86020830184612913565b60006020828403121561296457600080fd5b5035919050565b80356001600160a01b038116811461298257600080fd5b919050565b6000806040838503121561299a57600080fd5b6129a38361296b565b946020939093013593505050565b6000602082840312156129c357600080fd5b6128e88261296b565b6000806000606084860312156129e157600080fd5b6129ea8461296b565b92506129f86020850161296b565b929592945050506040919091013590565b60008060408385031215612a1c57600080fd5b82359150612a2c6020840161296b565b90509250929050565b602080825282518282018190526000918401906040840190835b81811015612abd5783518051845260018060a01b03602082015116602085015260408101516040850152606081015160608501526080810151608085015260a0810151151560a085015260c0810151151560c08501525060e083019250602084019350600181019050612a4f565b509095945050505050565b60008060408385031215612adb57600080fd5b612ae48361296b565b915060208301358015158114612af957600080fd5b809150509250929050565b634e487b7160e01b600052604160045260246000fd5b60008060008060808587031215612b3057600080fd5b612b398561296b565b9350612b476020860161296b565b925060408501359150606085013567ffffffffffffffff811115612b6a57600080fd5b8501601f81018713612b7b57600080fd5b803567ffffffffffffffff811115612b9557612b95612b04565b604051601f8201601f19908116603f0116810167ffffffffffffffff81118282101715612bc457612bc4612b04565b604052818152828201602001891015612bdc57600080fd5b8160208401602083013760006020838301015280935050505092959194509250565b60008060408385031215612c1157600080fd5b612c1a8361296b565b9150612a2c6020840161296b565b600181811c90821680612c3c57607f821691505b602082108103612c5c57634e487b7160e01b600052602260045260246000fd5b50919050565b634e487b7160e01b600052601160045260246000fd5b600082612c9557634e487b7160e01b600052601260045260246000fd5b500490565b8181038181111561084857610848612c62565b634e487b7160e01b600052603260045260246000fd5b600060018201612cd557612cd5612c62565b5060010190565b805169ffffffffffffffffffff8116811461298257600080fd5b600080600080600060a08688031215612d0e57600080fd5b612d1786612cdc565b60208701516040880151606089015192975090955093509150612d3c60808701612cdc565b90509295509295909350565b60008151612d5a8185602086016128ef565b9290920192915050565b7f646174613a6170706c69636174696f6e2f6a736f6e3b6261736536342c000000815260008251612d9c81601d8501602087016128ef565b91909101601d0192915050565b6001600160a01b0385811682528416602082015260408101839052608060608201819052600090612ddc90830184612913565b9695505050505050565b600060208284031215612df857600080fd5b81516128e8816128b5565b7f3c73766720786d6c6e733d22687474703a2f2f7777772e77332e6f72672f323081527f30302f737667222076696577426f783d223020302033353020333530223e000060208201527f3c726563742077696474683d2233353022206865696768743d22333530222066603e8201526e34b6361e911198b098b0993291179f60891b605e8201527f3c7465787420783d223137352220793d2235302220746578742d616e63686f72606d8201527f3d226d6964646c65222066696c6c3d22236565652220666f6e742d73697a653d608d8201527f2232342220666f6e742d7765696768743d22626f6c64223e506f6c696379202360ad82015260008451612f118160cd8501602089016128ef565b661e17ba32bc3a1f60c91b60cd918401918201527f3c7265637420783d2232352220793d223830222077696474683d22333030222060d482019081527f6865696768743d22323430222072783d223130222066696c6c3d22233136323160f48301526b19b2911039ba3937b5b29e9160a11b6101148301529061012001612fd9612fc7612fc1612fa1848a612d48565b73111039ba3937b5b296bbb4b23a341e911911179f60611b815260140190565b87612d48565b651e17b9bb339f60d11b815260060190565b979650505050505050565b7f7b226e616d65223a2022506172616d69667920506f6c6963792023000000000081526000845161301c81601b8501602089016128ef565b61088b60f21b601b918401918201527f226465736372697074696f6e223a20224e465420726570726573656e74696e67601d8201527f206120506172616d69667920666c6f6f6420696e737572616e636520706f6c69603d8201526318de488b60e21b605d8201527f22696d616765223a2022646174613a696d6167652f7376672b786d6c3b626173606182015263194d8d0b60e21b608182015284516130ca8160858401602089016128ef565b612fd9613105612fc16130ea60858686010161088b60f21b815260020190565b6e2261747472696275746573223a205b60881b8152600f0190565b615d7d60f01b815260020190565b7f3c7465787420783d223137352220793d223132302220746578742d616e63686f81526000805160206135c583398151915260208201526d01e91189b111f29ba30ba3ab99d160951b60408201526000855161317681604e850160208a016128ef565b661e17ba32bc3a1f60c91b604e918401918201527f3c7465787420783d223137352220793d223136302220746578742d616e63686f60558201526000805160206135c583398151915260758201526f01e91189a111f21b7bb32b930b3b29d160851b6095820152855160a5909101906000906131f6818460208b016128ef565b8201905061338c6133096132f66132f061329c61328561327f61322a886a1022aa241e17ba32bc3a1f60a91b8152600b0190565b7f3c7465787420783d223137352220793d223230302220746578742d616e63686f81526000805160206135c583398151915260208201526e01e91189a111f283932b6b4bab69d1608d1b6040820152604f0190565b8c612d48565b6a1022aa241e17ba32bc3a1f60a91b8152600b0190565b7f3c7465787420783d223137352220793d223234302220746578742d616e63686f81526000805160206135c583398151915260208201526d01e91189a111f2437b63232b91d160951b6040820152604e0190565b88612d48565b661e17ba32bc3a1f60c91b815260070190565b7f3c7465787420783d223137352220793d223238302220746578742d616e63686f81527f723d226d6964646c65222066696c6c3d22236161612220666f6e742d73697a6560208201527f3d223132223e506172616d69667920466c6f6f6420496e737572616e63653c2f6040820152643a32bc3a1f60d91b606082015260650190565b98975050505050505050565b8082018082111561084857610848612c62565b808202811582820484141761084857610848612c62565b7f7b2274726169745f74797065223a2022506f6c696379204944222c202276616c8152653ab2911d101160d11b602082015260008651613409816026850160208b016128ef565b62089f4b60ea1b6026918401918201527f7b2274726169745f74797065223a2022537461747573222c202276616c7565226029820152621d101160e91b6049820152865161345e81604c840160208b016128ef565b60268183010191505062089f4b60ea1b602682015261338c61355f61355961351e6134cf6135186134e26134cf6134c960298a017f7b2274726169745f74797065223a2022436f766572616765222c202276616c7581526432911d101160d91b602082015260250190565b8e612d48565b6608115512089f4b60ca1b815260070190565b7f7b2274726169745f74797065223a20225072656d69756d222c202276616c7565815263111d101160e11b602082015260240190565b8a612d48565b7f7b2274726169745f74797065223a2022506f6c696379686f6c646572222c20228152683b30b63ab2911d101160b91b602082015260290190565b86612d48565b61227d60f01b815260020190565b60008161357c5761357c612c62565b50600019019056fe4142434445464748494a4b4c4d4e4f505152535455565758595a6162636465666768696a6b6c6d6e6f707172737475767778797a303132333435363738392b2f723d226d6964646c65222066696c6c3d22236565652220666f6e742d73697a65a2646970667358221220fb830c790c72d6b27e9de1b283c829da5b44cfd6f1523f2e4c7466553c38eb0d64736f6c634300081c0033",
  "linkReferences": {},
  "deployedLinkReferences": {}
}